S0100000415453414D3358382E73726563DB
S214080000807B07208D1708008917080089170800C5
S21408001089170800891708008917080000000000DB
S214080020000000000000000000000000891708001B
S21408003089170800000000008917080089170800BB
S2140800408917080089170800891708008917080003
S21408005089170800891708008917080089170800F3
S21408006089170800891708000000000051130800C7
S21408007061130800711308008113080000000000CF
S214080080000000008917080089170800891708006B
S21408009089170800891708008917080089170800B3
S2140800A0891708000000000089170800891708004B
S2140800B08917080089170800891708008917080093
S2140800C08917080089170800891708008917080083
S2140800D08917080089170800891708008917080073
S2140800E08917080089170800891708008917080063
S2140800F08917080010B5054C237833B9044B13B19B
S2140801000448AFF300800123237010BD742A07202B
S21408011000000000CC2F08000C4B43B10C4810B56B
S2140801200C49AFF300800C48036823B910BD0A4891
S214080130036833B97047094B002BF7D0BDE8104069
S2140801401847064B002BF5D0184700BF00000000E4
S214080150CC2F0800782A0720CC2F080000000000C3
S214080160C068704708B5120202F47062114302F0C4
S21408017027FF002008BD0000A1F10E03012B02D8BE
S2140801804FF0FF30704710B582B0EFF31083B3FA24
S21408019083F35B09019372B6BFF35F8F00240B4BA2
S2140801A01C70019C120222F07F4222F0FF02C9B2A4
S2140801B0114341F0B44102F0FFFE2CB10122034B7B
S2140801C01A70BFF35F8F62B602B010BD2C220720EC
S2140801D038B504460D460A4601460548FFF7C2FFED
S2140801E02A4621460348FFF7BDFF002038BD00BF5A
S2140801F0000A0E40000C0E4038B5022802D9112518
S214080200284638BD044600220D210848FFF7B4FFEB
S214080210054608B11025F3E70448FFF7A1FF0123B8
S21408022003FA04F42042EBD01D46E9E7000A0E4024
S214080230022802D911231846704710B50446FFF75E
S214080240DBFF012809D022460B210548FFF794FF5B
S214080250034600B11023184610BD0023FBE700BF75
S214080260000A0E4008B50020FFF7E2FF08BD08B5F3
S2140802700020FFF7C1FF08BD28B130B404460022AD
S2140802804FF0FF300DE04FF0FF30C0437047237843
S2140802904340DBB2054D55F8233083EA102001327F
S2140802A001348A42F3D3C04330BC7047702B080031
S2140802B0431003F05503400020F0550040B20343B6
S2140802C0DBB2981000F033009B0023F033035BB2D8
S2140802D00343DBB2180940EA0310C0B2704770B592
S2140802E082B000238DF8073088B105460E461C46B6
S2140802F008E0285DFFF7DCFF8DF807009DF807305B
S2140803002B550134B442F4D3002002B070BD4FF030
S214080310FF30FAE710B582B000238DF807303C4965
S2140803203C4800F037FA0028F9D100238DF807304A
S214080330012302223849374800F064F98DF807008F
S2140803409DF807305BB213F1030F52D00123022247
S2140803503249304800F056F98DF807009DF8073006
S2140803605BB213F1030F47D042F228032C4AD25A45
S21408037012B9002002B010BD01232A49254800F012
S21408038041F98DF807009DF807305BB213F1030FAB
S21408039035D00123042224491E4800F033F98DF88D
S2140803A007009DF807305BB213F1030F2AD01C4AEA
S2140803B042F22A03D35C42F22B01515C43EA012342
S2140803C042F22C01515C43EA014342F22D01545C8F
S2140803D053EA046419D0104642F22803D15A07306B
S2140803E0FFF74AFF844201D10020C3E74FF0FF30F1
S2140803F0C0E74FF0FF30BDE74FF0FF30BAE74FF0E9
S214080400FF30B7E74FF0FF30B4E70020B2E700BF91
S214080410DA01072000080E40DB010720002207202B
S214080420D8010720DF0107200222072010B582B076
S2140804304E4B9B788DF8073006238DF806309DF8CE
S2140804400730093B142B00F28C80DFE803F00B2200
S2140804502D4C6B8A8A8A8A8A8A8A8A8A8A8A8A8AA9
S21408046038577600424B1B68984700280FDB062350
S2140804708DF806309DF80640E4B221463D4800F067
S21408048080F90028F9D19DF8060002B010BD902327
S214080490EEE7374B5B689847002803DB06238DF8A2
S2140804A00630E7E7A023FAE7314B9B689847002811
S2140804B003DB06238DF80630DCE70B23FAE72B4828
S2140804C042F22803C15A0730FFF709FF0446284BB3
S2140804D0DB68984754EA000303D406238DF80630F1
S2140804E0C8E7B123FAE7224B9B699847002803DB45
S2140804F006238DF80630BDE7C023FAE71B4842F20C
S2140805002803C15A0730FFF7EAFE0446184BDB6992
S214080510984754EA000303D406238DF80630A9E763
S214080520C123FAE7124B1B699847002803DB06230A
S2140805308DF806309EE7D023FAE70C4842F22803E7
S214080540C15A0730FFF7CBFE0446094B5B6998474C
S21408055054EA000303D406238DF806308AE7D1232D
S214080560FAE766238DF8063084E700BFD80107202F
S2140805700C22072000080E40F8B504460F4616461B
S21408058007E02946204600F0FCF80028F9D1013E8D
S21408059001375EB33D78164B9C42F2D0154B9C4211
S2140805A00FD0154B9C4213D0144B9C4217D0144BBB
S2140805B09C42ECD12946204600F0F6F80028F9D1EE
S2140805C0E5E72946204600F0EFF80028F9D1DEE7EF
S2140805D02946204600F0E8F80028F9D1D7E729464A
S2140805E0204600F0E1F80028F9D1D0E70020F8BD51
S2140805F000080E400080094000C0094000000A407C
S21408060000400A402DE9F04182B004460D461746E0
S214080610984631E02A4E2946204600F0BBF838B105
S214080620B8F1000FF7D0013EF5D16FF002062AE0C8
S214080630002628E001A9204600F0C1F80028F9D1D4
S2140806409DF804302B7021E001A9204600F0B7F889
S2140806500028F9D19DF804302B701AE001A920462D
S21408066000F0ADF80028F9D19DF804302B7013E09F
S214080670002E22DB013F0135DFB100230193114B29
S2140806809C42C7D00026104B9C42D3D00F4B9C42AE
S214080690DAD00F4B9C42E1D00E4B9C42E8D101A920
S2140806A0204600F08CF80028F9D19DF804302B700D
S2140806B0DEE7002002B0BDE8F0816FF00200F9E73F
S2140806C020A1070000080E400080094000C009402D
S2140806D000000A4000400A4070B50D46144606461B
S2140806E058B14FF0FF360AE0064B1868064B1B68F1
S2140806F02946984701350136013C002CF4DC304683
S21408070070BD00BF502B0720482B072070B5013856
S21408071002280FD8144600258CB10A4B18684E1CC0
S214080720094B1B6809789847002806DB0135013C09
S2140807303146F1E74FF0FF3501E04FF0FF35284628
S21408074070BD00BF502B07204C2B072010B4AC23DD
S21408075003600B684A68B3FBF2F31B095C1E4FF68E
S214080760FE7294420BD803628B68436040F2022301
S214080770C0F8203150230360002010BC70470120C9
S214080780FBE7436913F0020F02D0C16100207047EF
S21408079001207047436913F0010F03D083690B707B
S2140807A00020704701207047436913F0020F04D0F9
S2140807B0C1F30801C16100207047012070474369F2
S2140807C013F0010F05D08369C3F308030B600020FC
S2140807D07047012070474FF400434360704700009D
S2140807E03B4B1B68082B02D90022394B1A60394B41
S2140807F05B78092B1FD010B582B0354B1B681BBB26
S2140808001E2002F0D5FB01224FF08061324800F02E
S214080810BEFC0B222F4B5A700023304A13702C4A0A
S21408082013602B4A136801331360082B27D82B4B09
S214080830187802B010BD0A22264B5A700022244BA4
S2140808401A60264B187870474FF080624FF0205198
S214080850214800F051FC1E4B1B68013B98401F4A7C
S2140808601378184310701E4C4FF48041204600F051
S21408087041FC4FF48041204600F03AFCD1E70024C2
S2140808804FF400424FF02051154800F035FC01287F
S21408089009D1062002F08CFB0134B4F5886FEFD33B
S2140808A04FF0FF3300E00023002B01DAFF20C0E7FB
S2140808B00122009200234FF08061074800F087FC71
S2140808C01E2002F075FB0C22024B5A70AFE700BFE1
S2140808D0902A0720D801072000100E40982A0720E3
S2140808E0000E0E4038B50546334B1B68072B02D959
S2140808F00022314B1A60314B5B780A2B1ED02E4BE8
S2140809001B683BB915F0010F1FD04FF080612C48CB
S21408091000F0EEFB00244FF400424FF02051294827
S21408092000F0EAFB012816D1062002F041FB01344C
S214080930B4F5886FEFD34FF0FF330DE00B221F4B53
S2140809405A7000221C4B1A60D9E74FF080611C4889
S21408095000F0D0FBDEE70023002B29DB164B1B68D4
S214080960062B0AD8013345FA03F313F0010F0CD00F
S2140809704FF08061124800F0BBFB0F4A1368013342
S2140809801360072B07D8284638BD4FF080610C48FF
S21408099000F0B0FBF1E74FF08061094800F0A8FBD3
S2140809A040F6B83002F004FB0C22044B5A70EAE713
S2140809B04FF0FF3038BD00BF942A0720D801072023
S2140809C000100E40000E0E4070B582B04FF4006264
S2140809D03A4BC3F880203A4D4FF40021284600F0E1
S2140809E089FB384E304602F0E3FA374C0123009371
S2140809F000231A464FF08061204600F0E8FB304698
S214080A0002F0D6FA4FF40021284600F071FB40F6B3
S214080A103C7002F0CDFA4FF08061204600F068FB8B
S214080A2000244FF400424FF02051254800F064FBA4
S214080A30012809D1062002F0BBFA0134B4F5886F04
S214080A40EFD34FF0FF3300E00023002B2FDB0C2002
S214080A5002F0AEFA1C4C4FF08061204600F04AFBCC
S214080A6009221A4B5A704FF40062144B1A603C2045
S214080A7002F09EFA01224FF08061204600F087FBC4
S214080A800024124B5B780C2B07D00134104B9C4289
S214080A9010D8062002F08CFAF3E70C4B5B79552B3E
S214080AA002D1002002B070BD4FF0FF30FAE74FF0D9
S214080AB0FF30F7E74FF0FF30F4E700BF00E100E053
S214080AC0000E0E40C027090000100E40D80107206F
S214080AD03F0D030070B582B01646204B58719971C9
S214080AE01B78102B01D000250EE040F6B83002F037
S214080AF05FFAF8E70023002B2CDB013542F23003BF
S214080B00164AD550AE421FD9B54220D2134B2022E2
S214080B101A700A225A700123009300231A464FF0CF
S214080B2080610F4800F053FB00240C4B5B780C2BBD
S214080B30E0D001340B4B9C4203D8062002F038FA6A
S214080B40F3E74FF0FF33D6E70021D150DCE700206B
S214080B5002B070BD4FF0FF30FAE700BFD80107209B
S214080B6000100E403F420F0070B582B006461F4B7D
S214080B701B78202B01D000250EE040F6B83002F096
S214080B8017FAF8E70023002B2CDB013542F2300376
S214080B90164AD550AE421FD9B54220D2134B102262
S214080BA01A700A225A700123009300231A464FF03F
S214080BB080610F4800F00BFB00240C4B5B780C2B75
S214080BC0E0D001340B4B9C4203D8062002F0F0F923
S214080BD0F3E74FF0FF33D6E70021D150DCE70020DB
S214080BE002B070BD4FF0FF30FAE700BFD80107200B
S214080BF000100E403F420F000B2800D07047B1F59A
S214080C00004FFBD138B50B4B1B78102B08D0094B7F
S214080C1042F230029A5813445879FFF763FE38BDFB
S214080C20044C42F23003E558FFF7DAFD2C446071B5
S214080C3038BD00BFD801072010B582B000238DF854
S214080C4007308DF806307F2813D0FF281ED09DF871
S214080C50071003221420FFF73DFF04460120FFF784
S214080C6083FF2043114B5B7913F0C00F1BD102B0F2
S214080C7010BD0E4B93F805228DF8072093F8062230
S214080C808DF806209DF80620DA71E0E7074B93F802
S214080C9005248DF8072093F806248DF806209DF87D
S214080CA00620DA71D3E74FF0FF30E0E7D8010720D7
S214080CB070B542F22803264AD35AB3F5806F40D857
S214080CC04FF4826000F092FE044600283CD04FF4B1
S214080CD0806632461F4901F03BF9012200210E20AA
S214080CE0FFF7F8FE05463046FFF73EFF054301D4FA
S214080CF0002307E0204600F081FE4FF0FF351EE097
S214080D0001339BB242F2280211498A5A934213D2FF
S214080D10032BF5D9A3F5FA7292B20B2AF0D9E25C46
S214080D20D2B20B49194449798A42E9D0204600F0E4
S214080D3065FE4FF0FF3502E0204600F05FFE2846CD
S214080D4070BD4FF0FF35FAE74FF0FF35F7E700BF05
S214080D50D8010720DF01072070B542F22803234A8E
S214080D60D35AB3F5005F3AD842F2200000F03EFEB0
S214080D700446002836D04FF4005632461C4901F087
S214080D80E7F8012200210F20FFF7A4FE05463046AB
S214080D90FFF7EAFE054311D4002342F2280213495E
S214080DA08A5A013A934215DAE25CD2B20F491944DC
S214080DB049798A4208D101339BB2EEE7204600F013
S214080DC01DFE4FF0FF3508E0204600F017FE4FF0F6
S214080DD0FF3502E0204600F011FE284670BD4FF0B1
S214080DE0FF35FAE74FF0FF35F7E700BFD8010720D1
S214080DF0DF01072038B5012200210E20FFF76AFE22
S214080E004FF48060FFF7B0FE044608B1204638BDB0
S214080E10064D4FF480612846FFF761FA4FF480626A
S214080E2029460348FFF7A8FBF0E700BFDD010720C7
S214080E3000080E4010B5012200210F20FFF74AFED9
S214080E404FF40050FFF790FE044608B1204610BD48
S214080E504FF4005202490348FFF78EFBF6E700BF3F
S214080E60DD01072000080E4070B52B4AD3781279AA
S214080E7043EA0223C3F38705B3F5806F42D242F2F2
S214080E802803254AD35AB3F5806F3ED80024264651
S214080E9002E07F292DD0013442F228031E4AD35A95
S214080EA0B4EB930F36D22919F3D07D29F1D07E29D9
S214080EB0EFD07F29EDD034B1174B03EB8402D2F87C
S214080EC00720C3F8072006220A20FFF703FE06437A
S214080ED047F2305002F06CF80120FFF745FE064353
S214080EE016D40D4B5B7913F0C00FD4D04FF0FF36F5
S214080EF010E02819C0B2FFF79FFE061ECBDA4FF0A7
S214080F00FF3607E04FF0FF3604E04FF0FF3601E00B
S214080F104FF0FF36304670BDD8010720F8B52D4A89
S214080F20D378127943EA0223C3F34716B3F5005F72
S214080F3046D242F22803274AD35AB3F5005F42D86E
S214080F400024254614E0222231190920FFF7C2FDA5
S214080F50054347F2305002F02BF80120FFF704FE55
S214080F60054335D41B4B5B7913F0C00F2ED10134E3
S214080F7042F22803174AD35AB4EB531F28D2002C40
S214080F80E1D0DFF850C00CEB441353F807EF5F6866
S214080F909868D968CCF807E0CCF80B70CCF80F0046
S214080FA0CCF81310D3F810E05F699869D969CCF8C3
S214080FB017E0CCF81B70CCF81F00CCF82310C2E75B
S214080FC04FF0FF3504E04FF0FF3501E04FF0FF35F6
S214080FD02846F8BDD8010720F0B585B01B4B0FCBC7
S214080FE004AC04E90F00012200210820FFF772FD77
S214080FF004460120FFF7B8FD0443154B5B79882BA0
S21408100020D1134E6D460FCDC6F80500C6F8091058
S214081010C6F80D20C6F81130102245215520FFF7D6
S21408102059FD04430B4801F0C3FF0120FFF79CFD60
S2140810302043737913F0C00F01D105B0F0BD4FF00F
S214081040FF30FAE74FF0FF30F7E700BF702F0800D1
S214081050D8010720C027090010B5FFF7B5FC0446DD
S2140810601E2001F0A5FF012200210220FFF732FD15
S214081070044341F2707001F09BFF0220FFF774FDF5
S214081080204610BD08B50E4801F08EFF3E21002010
S21408109000F0A8F900F0D0F90028FBD000F0D4F949
S2140810A0084A094B9A6200F0D7F90028FBD01020AE
S2140810B000F06EF900F0A4FB014801F075FF08BDCA
S2140810C000BD0105013F0D2000060E400AB9016665
S2140810D0704741667047C0F8841053004FF40042CA
S2140810E0B2FBF3F2013AC2F30D02C0F88C20704747
S2140810F00163704741637047B1F1405F07D0B1F1B3
S214081100605F04D0C36B134203D001207047836B23
S214081110F9E7002070474264B1F1805F16D00BD81B
S21408112049B1B1F1006F05D1016F036F21EA0201E1
S2140811300B40036742607047B1F1405FFBD0B1F1E6
S214081140605FF8D0B1F1205FF4D17047036F1343A6
S2140811500367EFE712F0100F12D0C0F8B01012F0C5
S214081160200F07D0C0F8D41012F0400F05D0C0F8F2
S214081170C0107047C0F8D010F6E7C0F8C410704723
S214081180C0F8B4107047016470474164704770B582
S21408119004460D461646FFF7F8FF06F001022946F4
S2140811A02046FFF793FF16F00A0F09D0256216F0BF
S2140811B0020F07D116F0080F06D0C4F8845003E0D3
S2140811C06562F4E7C4F880506561256070BDF8B5BF
S2140811D004460D4616461F46FFF7D7FF069A2946C9
S2140811E02046FFF773FF2FB125652EB96563256185
S2140811F02560F8BD6565F8E72563F8E7C06C7047B5
S214081200806C704770B582B005460E46144602F0EC
S214081210F043B3F1205F29D012D8B3F1006F17D08E
S214081220B3F1805F12D10A464FF08051FFF773FF83
S21408123004F0010231462846FFF748FF012013E074
S214081240B3F1405F16D0B3F1605F13D000200BE017
S2140812500A464FF00061FFF75EFF04F001023146D0
S2140812602846FFF733FF012002B070BDFFF78FFF57
S2140812700120F9E704F0605204F001030093C4F378
S2140812808003B2F1605F14BF00220122314628466F
S214081290FFF79DFF0120E7E7F8B504460E46FFF77F
S2140812A0ADFF05462046FFF7ABFF054001D00024FA
S2140812B003E0F8BD0134062C11D88DB12301094A84
S2140812C0D058B042F6D102EB041359680D42F1D05B
S2140812D01F46DB6898477B6825EA0305EAE7F8BDFA
S2140812E0F8BD00BF9C2A0720F8B5174C2768062FBC
S2140812F028D84FF0000E744601E00134E4B2A44644
S214081300A7420AD3114E250106EB050E75598D42E4
S214081310F3D1DEF804509542EFD1CEF80010CEF89F
S2140813200420CEF808300699CEF80C100137BC45D4
S21408133005D011461A46FFF70DFF0020F8BD0249F2
S2140813400F60F6E70120F8BD0C2B07209C2A072023
S21408135008B50B210148FFF79FFF08BD000E0E4099
S21408136008B50C210148FFF797FF08BD00100E408E
S21408137008B50D210148FFF78FFF08BD00120E4083
S21408138008B50E210148FFF787FF08BD00140E4078
S214081390134A136B23F07003184310634FF400636B
S2140813A00F4A926E12F0080F02D1A3B1013BF7E77D
S2140813B00B4A136B23F0030343F0020313634FF443
S2140813C00063074A926E12F0080F02D12BB1013B58
S2140813D0F7E700207047012070470120704700BFDC
S2140813E000060E40D0B9114A136A23F45C1323F0A2
S2140813F00303090289B20B4343F45C1343F0010369
S21408140013620A4B9B6E13F0010FFAD0074A136A51
S21408141043F09B7343F480331362704703490B6AA7
S214081420034A1A40034B13430B62704700060E40EC
S214081430FCFFC8FE02003701024B986E00F48030AD
S214081440704700BF00060E404FF00052014B9A62EC
S214081450704700BF00060E40024B986E00F0020070
S214081460704700BF00060E402C281ED81F280CD830
S214081470114B9A6901238340934318D0012303FA3A
S21408148000F00D4B18610020704720380A4BD3F83F
S21408149008210123834093430BD0012303FA00F06D
S2140814A0054BC3F800010020704701207047002054
S2140814B070470020704700BF00060E4030B583B066
S2140814C00C20FFF7D1FF01240094002322464FF09A
S2140814D080610B48FFF77BFE0A4D009400231A46EE
S2140814E04FF480412846FFF772FE009400231A4600
S2140814F04FF400212846FFF76AFE03B030BD00BF50
S21408150000100E40000E0E4010B582B00B20FFF7FC
S214081510ABFF104C01224FF400412046FFF737FE80
S2140815200D4A4FF400412046FFF7D5FD0B4B0093BC
S21408153079234FF400420B212046FFF7D5FE4FF4DF
S21408154000412046FFF71FFE4FF40062044B1A6066
S21408155002B010BD000E0E40A0860100F90B080070
S21408156000E100E0F0B583B004460D460023019381
S214081570254B98420FD00026244B9C421BD0244B68
S2140815809C4222D0234B9C4229D0234B9C4230D0ED
S214081590304603B0F0BD1746204E29462046FFF7D2
S2140815A0F9F830B1002FF8D0013EF6D16FF00206F8
S2140815B0E2E70026E0E701A92046FFF700F9002841
S2140815C0F9D19DF804302B70D9E701A92046FFF71A
S2140815D0F6F80028F9D19DF804302B70D2E701A957
S2140815E02046FFF7ECF80028F9D19DF804302B7058
S2140815F0CBE701A92046FFF7E2F80028F9D19DF8C5
S21408160004302B70C4E700BF00080E400080094075
S21408161000C0094000000A4000400A4020A1070018
S21408162038B504460D461C4B98420DD01B4B9842C5
S21408163012D01B4B984217D01A4B98421CD01A4B04
S214081640984221D0002038BD29462046FFF799F851
S2140816500028F9D1012038BD29462046FFF7A4F80E
S2140816600028F9D1012038BD29462046FFF79CF806
S2140816700028F9D1012038BD29462046FFF794F8FE
S2140816800028F9D1012038BD29462046FFF78CF8F6
S2140816900028F9D1012038BD00080E400080094016
S2140816A000C0094000000A4000400A4008B506206D
S2140816B0FFF7DAFE0720FFF7D7FE06210020FEF721
S2140816C087FDFEF7D4FD012801D0FEF7CBFD0020EC
S2140816D008BD000010B588B04FF4E13304934FF40A
S2140816E000630693154A4FF440711548FFF78AFDC4
S2140816F00820FFF7B9FE134C134B1C60134A144B13
S2140817001A60144A144B1A60144B0193049B0293F4
S214081710069B03930820FFF7A7FE01A92046FFF7BC
S21408172015F80F4C23680021986800F0F3FC23682E
S2140817300021586800F0EEFC08B010BD0100000853
S214081740000E0E4000080E40502B072021160800F9
S2140817504C2B072065150800482B072000BD0105FF
S2140817603422072008B5FFF78DFC0648FFF733F844
S214081770FFF7A4FEFFF7C8FEFFF7ACFFFFF796FFDC
S21408178008BD00BF501A0E40FEE7000008B5154B0E
S214081790154A9A4209D0134B134A03E01168196098
S2140817A00433043211498B42F8D3114B02E000226D
S2140817B01A6004330F4A9342F9D30F4B23F0604262
S2140817C022F07F020D498A6003F16043B3F5801F5B
S2140817D003D28B6843F000538B6000F0DFF800F00C
S2140817E0C3F8FEE700000720CC2F0800742A07205D
S2140817F0742A07207C2B07200000080000ED00E074
S2140818003E4B1B6B03F00303032B3FD8DFE803F0C4
S21408181002112D2D3A4B5B6913F0800F04D04FF45C
S2140818200042384B1A6031E04FF4FA42354B1A60E2
S2140818302CE0324B1B6A13F0807F03D0324A314BC0
S2140818401A6023E0314A2F4B1A602C4B1B6A03F0B0
S2140818507003102B05D0202B18D12B4A294B1A6061
S21408186014E02B4A274B1A6010E0244B1B6A13F02F
S214081870807F1AD0244A234B1A60204B1B6B03F038
S2140818800303022B24D0234A1E4B1A601B4B1B6BE8
S21408189003F07003702B29D0184B1A6BC2F3021290
S2140818A018490B68D3400B607047184A154B1A60E6
S2140818B0124B1B6A03F07003102B05D0202BDCD1CB
S2140818C0114A104B1A60D8E7114A0E4B1A60D4E733
S2140818D00A48826AC2F30A420A490B6802FB0333C3
S2140818E0826AD2B2B3FBF2F30B60CFE7054A1368FD
S2140818F00949A1FB03135B081360704700060E40F6
S214081900101A0E4030220720001BB70000093D00C1
S21408191000127A00001C4E0EABAAAAAA0A4B1B6835
S21408192053B1094B1B681A180849914208DB104640
S214081930054A106018467047054A034B1A60F0E7D8
S2140819404FF0FF30704700BF102B0720FC7F0820A1
S214081950807B07204FF0FF3070474FF400534B60F2
S214081960002070470020704708B50A4B10221A70EE
S2140819700A225A70FFF7F6FE05E066210648FEF7CB
S21408198000FF0028F9D1FEF7C5FC0028F5DBFEF7B6
S2140819904DFDF8E7D801072000080E4070B50F4E39
S2140819A00F4D761BB61018BF002405D0013455F825
S2140819B0043B9847A642F9D10A4E0B4D01F0E2FACD
S2140819C0761BB61018BF002406D0013455F8043B21
S2140819D09847A642F9D170BD70BD00BF902F080089
S2140819E0902F0800982F0800902F0800024B0146F9
S2140819F0186800F00BB800BF34220720024B0146D7
S214081A00186800F001BE00BF342207202DE9F04F09
S214081A1001F10B06162E83B0054640F29E8036F07E
S214081A20070600F1BD80B14200F2BA8000F054FB10
S214081A30B6F5FC7FC0F08582730A00F0B880042BE8
S214081A4000F26C81B30903F1390003F1380EC100C6
S214081A50B84F39444C680839A14206D10CE0002A30
S214081A6080F2AB80E468A14206D0636823F00303E3
S214081A709A1B0F2AF3DD70463C69DFF8CCE2744502
S214081A8000F09E81636823F003039A1B0F2A00F375
S214081A908381002AC7F814E0C7F810E080F2918026
S214081AA0B3F5007F80F054810122DB0879684FEA9D
S214081AB0A30C134457F8338002FA0CF207EBC30C56
S214081AC00A43ACF10801E160C4F808807A6047F878
S214081AD03340C8F80C40012483109C4094427DD8BB
S214081AE0144206D120F003006400144200F10400FA
S214081AF0FAD007EBC009CC468046DCF80C309C458B
S214081B0007D15FE1002A80F26D81DB689C4500F012
S214081B105981596821F003018A1B0F2AF2DDDC6817
S214081B20D3F808C046F0010828461E4442F00105CE
S214081B30C3F80480CCF80C40C4F808C07E613E6147
S214081B40C6F80CE0C6F808E075605A50009300F036
S214081B50C9FA009B03F108041EE0102920D800F0FB
S214081B60BBFA102618230220724F3B445C68A3F188
S214081B700802944200F02F816368E16823F00303AB
S214081B8023445A68A66842F00102F16028468E602F
S214081B905A6000F0A7FA0834204603B0BDE8F08F74
S214081BA000240C2320462B6003B0BDE8F08F4020AD
S214081BB04FF400714FF03F0E4AE723445A68E16835
S214081BC0E0E723445A68284642F001025A6008347F
S214081BD000F088FA204603B0BDE8F08FBC6863685A
S214081BE023F00308B04504D3A8EB06030F2B00F335
S214081BF08580DFF85891504BD9F800201B680132D1
S214081C00334404EB080A00F0548103F580530F337D
S214081C1023F47F6B2BF00F0B5946284600F068FA22
S214081C20411C024600F0FB80824500F2F680434BDA
S214081C3019685944196000F04C81D9F80000013041
S214081C401BBFA2EB0A0A5144C9F80020196012F01B
S214081C50070100F01481C1F10800C1F58051024463
S214081C60083102EB0B09C9F30B09A1EB0909494630
S214081C7028460193009200F03BFA431C9DE80C00AE
S214081C8000F04281801A484440F001001968BC42BE
S214081C904944BA601960506017D0B8F10F0F40F287
S214081CA0FA804FF0050C6268A8F10C0020F00700D7
S214081CB002F0010204EB000E02430F286260CEF821
S214081CC004C0CEF808C000F216811D4BBC681A681E
S214081CD0914288BF19601B4B1A689142626888BF98
S214081CE0196022F003029642A2EB060301D80F2BD6
S214081CF004DC284600F0F6F900244DE746F0010219
S214081D0043F00103264462602846BE6008347360C8
S214081D1000F0E8F9204603B0BDE8F08F142B70D920
S214081D20542B00F2A280330B03F16F0003F16E0E02
S214081D30C1008DE660260720442B0720142B0720B9
S214081D403C2B0720402B072068260720682A0720F8
S214081D505A0A042A5BD9142A00F2AE8002F15C0102
S214081D60C9005B3207EB010C7958ACF1080C8C45BE
S214081D7000F088804A6822F00302934273D289688A
S214081D808C45F7D1DCF80C307A68E360C4F808C0F4
S214081D909C60CCF80C409EE646F0010C42F001012F
S214081DA02644C4F804C028467E613E61C6F80CE0A6
S214081DB0C6F808E07160E25000F094F90834EBE6E3
S214081DC07A6888E608F1010818F0030F0CF1080C89
S214081DD07FF493AE2DE0DC68A34208BF02303FF4E0
S214081DE04BAEC9E61C4619444A68DB6854F8086FC7
S214081DF042F001024A602846F3609E6000F072F9DD
S214081E00CAE603F15C0003F15B0EC10020E69A09FE
S214081E1002F13901C9003832A4E7BC4254D0BC6884
S214081E20626822F003025EE759F80839994540F0DF
S214081E30868010F0030F00F1FF30F5D17B6823EAA7
S214081E4004037B6064009C423FF6C8AE002C3FF457
S214081E50C5AE1C4240467FF44CAE64001C4200F1FE
S214081E600400FAD045E68C468CE7B3F5AA7F15D869
S214081E70F30B03F1780003F1770EC100E8E54FF4A1
S214081E808051EEE601217B68921001FA02F21A43AD
S214081E907A60634679E7012353602AE740F2545292
S214081EA0934222D8B30C03F17D0003F17C0EC100E7
S214081EB0CEE503F1100BAFE6542A29D81A0B02F127
S214081EC06F01C9006E324DE7204B196859441960F6
S214081ED0B3E6CAF30B0000287FF4AFAE08EB0B039B
S214081EE0BA6843F001035360EFE67F204FF47E7133
S214081EF04FF07E0EACE504F108012846009300F08A
S214081F0083FB009B1968E0E601204FF00009BDE658
S214081F10B2F5AA7F05D8DA0B02F17801C900773244
S214081F2020E740F254518A4205D89A0C02F17D0106
S214081F30C9007C3216E74FF47E717E2212E77B6872
S214081F4080E7F00806F108030EE600BF142B07200A
S214081F50844641EA000313F0030349D1403A23D3E9
S214081F600B6803604B6843608B688360CB68C3600C
S214081F700B6903614B6943618B698361CB69C361F4
S214081F800B6A03624B6A43628B6A8362CB6AC362DC
S214081F900B6B03634B6B43638B6B8363CB6BC363C4
S214081FA040304031403ADBD230320BD30B68036006
S214081FB04B6843608B688360CB68C3601030103111
S214081FC0103AF3D20C3205D351F8043B40F8043BE0
S214081FD0043AF9D2043208D0D2071CBF11F8013BE4
S214081FE000F8013B01D30B8803806046704700BFAA
S214081FF0082A13D38B07B1D010F00303AED0C3F171
S2140820000403D21ADB071CBF11F8013B00F8013B9A
S214082010A4D331F8023B20F8023B9FE7043AD9D311
S214082020013A11F8013B00F8013BF9D20B7803702E
S2140820304B7843708B7883706046704770B4860719
S21408204046D0541E002A41D0CAB2034602E014F114
S214082050FF343BD303F8012B9D07F8D1032C2ED968
S214082060CDB245EA05250F2C45EA054519D9264679
S21408207003F11002103E0F2E42F8105C42F80C5C7A
S21408208042F8085C42F8045C02F11002F2D8A4F1A7
S214082090100222F00F0204F00F041032032C13442F
S2140820A00DD91E462246043A032A46F8045BFAD897
S2140820B0221F22F003020432134404F003042CB156
S2140820C0C9B21C4403F8011B9C42FBD170BC704784
S2140820D014460346C2E700BF014800F0A7BB00BF8E
S2140820E0642B0720014800F0A3BB00BF642B072021
S2140820F038B50023064C054608462360FFF70EFC55
S214082100431C00D038BD2368002BFBD02B6038BD9D
S214082110782B072000290CBF022200224FF4806388
S21408212000F000B82DE9F043614D83B02D680446F1
S2140821300F4690461E4615B1AB6B002B64D0B8F11F
S214082140020F06D0B8F1010F00F29F80002EC0F2F1
S2140821509C80636ED80734D52146284600F056F989
S214082160216B41B104F14003994202D0284600F0A1
S2140821704BFA002323630022B4F90C30A261626094
S2140821801A063AD423F44A6323F00303B8F1020F7D
S214082190A3811DD001AB6A462146284600F04AFBBB
S2140821A0A3891843A081002E32D1009E3046FFF73F
S2140821B01DFC074600286BD0A38943F08003A38143
S2140821C028E0A3899905C7D4A06D00F02FFBC3E7C4
S2140821D0002500260120616E04F1430243F0020345
S2140821E0A660CE07A38160612260226101D49805AB
S2140821F03ED5284603B0BDE8F0832169284600F09E
S21408220003FAB4F90C30BDE7284600F057F996E70C
S214082210002FCBD0AB6B002B33D0009BB4F90C202F
S2140822209E421CBF42F40062A281B8F1010F04BFAF
S21408223042F00102A28192B212F0080327602761D9
S21408224066610ED0D1071AD50023656E764215F062
S2140822500105A661A36009D00025284603B0BDE89D
S214082260F083A360656E15F00105F5D19305C0D41B
S214082270A06D00F0DDFA284603B0BDE8F083A6603E
S214082280F0E7284600F01AF9C7E74FF0FF35B0E741
S214082290DDF80090B14504D04846FFF7A7FB07468F
S2140822A020B9B4F90C304FF0FF3592E74E4683E775
S2140822B034220720024B13B1024800F005B87047D5
S2140822C00000000035250800002301461A46184677
S2140822D000F038BBB1F90C302DE9F0419AB20D4642
S2140822E0110780463AD46A6843F40063002AAB8133
S2140822F070DDAC6A002C4AD000229BB2D8F8006089
S214082300C8F8002013F4805268D02A6D5F0705D5F8
S21408231069682B6B521A0BB1EB6BD21A0023E9696A
S2140823204046A047441C3DD00021B5F90C302A6928
S21408233023F40063AB81DB0469602A6048D4296B08
S214082340C8F8006019B305F14003994202D0404628
S21408235000F05AF900202863BDE8F0812E69B6B16E
S214082360910718BF00232C6808BF6B692E60A41B52
S214082370AB600AE0234632466F6AE9694046B847CA
S2140823800028A4EB0004064404DD002CF2DC002040
S214082390BDE8F081AB894FF0FF3043F04003AB81D6
S2140823A0BDE8F081D8F800401D2CF3D8164BE34062
S2140823B0DB4313F00103EDD1B5F90C20296922F4AB
S2140823C00062AA81D2046B602960B8D5002CB6D109
S2140823D02865B4E7EA6B002A8BDCD8E70123E969AD
S2140823E04046A047431C024602D0AB89AC6A8DE73C
S2140823F0D8F80030002BF8D01D2B01D0162BC9D1E9
S214082400C8F80060C3E700BF0100402038B50D4695
S214082410044608B1836BBBB1B5F90C0088B16B6E86
S214082420DB0701D4810517D520462946FFF752FF5A
S2140824306B6E0446DA0702D4AB899B0507D520469F
S21408244038BD0446204638BD00F038F8E4E7A86DE5
S21408245000F0EEF9204638BDA86D00F0E7F9E3E78E
S214082460014900F0B7B900BF2D2A0800002310B5AF
S21408247004468181C28103604360836043660361CA
S21408248043618361194608225C30FFF7D7FD074889
S2140824900749084A084B2062E4616162A262E36267
S2140824A004F15800BDE8104000F0BCB991280800B7
S2140824B0B5280800F12808001129080010B50446B8
S2140824C0144800F0B3F9A26BFAB90320124904F5D0
S2140824D03B73C4F8E832C4F8E022C4F8E402E163C7
S2140824E060680421FFF7C2FFA06801220921FFF7F0
S2140824F0BDFFE06802221221FFF7B8FF0123054856
S214082500A363BDE8104000F093B90248BDE8104048
S21408251000F08EB9602B072061240800014800F0FF
S21408252085B900BF742B0720014800F081B900BFA9
S214082530742B072038B50A4C0A4D641BA4100AD021
S21408254004F18043013B05EB8305013C55F804394B
S2140825509847002CF9D1BDE8384000F01DBD00BFF3
S214082560CC2F0800C82F0800F8B50C46234F06469F
S214082570FFF7B2FDBB68C4F57E615D680F3125F0D4
S2140825800305294421F47F6121F00F01A1F5805449
S214082590B4F5805F07DB00213046FFF7A9FDBB686E
S2140825A02B44984204D03046FFF79CFD0020F8BD27
S2140825B061423046FFF79CFD01300DD0104BBA68DB
S2140825C019682D1B45F001053046091B5560196032
S2140825D0FFF788FD0120F8BD00213046FFF788FD8B
S2140825E0BA68831A0F2BDEDD064C0549246843F0CB
S2140825F00103001B53600860D5E700BF602607206C
S214082600142B0720682A0720002944D02DE9F0411A
S2140826100D468046FFF760FD55F8047C6949A5F12C
S214082620080427F00103E2188E685068B24220F0CA
S21408263003005ED0FE0750600BD455F8087C01F105
S214082640080EE41BA5683B4475456DD0E768EF6047
S214082650BD6015186D68ED073ED543F0010262604F
S214082660E350B3F5007F17D20122DB0898104D68B7
S214082670134451F83370824001EBC3002A430838EC
S214082680E060A7604A6041F83340FC604046BDE819
S214082690F041FFF727BD70475A0A042A52D89A090C
S2140826A002F13907FF0002F13805C819CA59083877
S2140826B090424FD0516821F003018B4232D2926883
S2140826C09042F7D1C368A060E3609C60C46040464F
S2140826D0BDE8F041FFF706BD95683B4F0344BD4291
S2140826E040D0D06843F00102E86085606260E3503D
S2140826F0B7E7FF07034407D455F8085C641BE2688D
S214082700A0682B44C2609060304A43F0010012680B
S214082710606093428C60B9D32D4B40461968FFF72A
S21408272023FFB3E71046CDE711184968C90744D414
S21408273091680344D26843F00100CA609160606003
S214082740E350A3E7142A16D802F15C07FF0002F14B
S2140827505B05AAE70123AA104D6893402B434B60FC
S2140827600346B0E743F001024C610C61E560A560E2
S2140827706260E3508AE7542A06D81A0B02F16F07FC
S214082780FF0002F16E0590E7B2F5AA7F06D8DA0BCD
S21408279002F17807FF0002F1770586E740F2545009
S2140827A0824206D89A0C02F17D07FF0002F17C05EA
S2140827B07BE74FF47E777E2577E743F0010161607B
S2140827C0136063E760260720682607206C2A072020
S2140827D0442B07202DE9F84310F538761ED0884696
S2140827E007464FF000097568B468013D10D4A38900
S2140827F0013D012B08D9B4F90E30013304D0214627
S2140828003846C04749EA00096B1C04F16804EED153
S2140828103668002EE7D14846BDE8F883B1464846F4
S214082820BDE8F883704700BF704700BF704700BF19
S214082830704700BF70B50C46B1F90E1090B000296D
S21408284015461E4614DB01AA00F052F900280FDBD5
S214082850029A4FF4806302F47042A2F50052B2FA6C
S21408286082F24FF40060520932602B6010B070BDDF
S2140828700023A289336012F0800004D04022184654
S2140828802A6010B070BD4FF480632B6010B070BD26
S21408289010B50C46B1F90E1000F054F9002803DB09
S2140828A0236D0344236510BDA38923F48053A381B5
S2140828B010BD00BF2DE9F0410C46B1F90C101F46BB
S2140828C0CB051646054607D5B4F90E100223002296
S2140828D000F022F9B4F90C1021F48051A1813B468E
S2140828E03246B4F90E102846BDE8F04100F014B898
S2140828F010B50C46B1F90E1000F00EF9A389421C6B
S2140829000EBF23F4805343F480532065A38110BD83
S214082910B1F90E1000F078B8F8B50E460025084C48
S214082920114607461A4630462560FDF7EFFE431C5B
S21408293000D0F8BD2368002BFBD03B60F8BD00BF75
S214082940782B07202DE9F8432C4D0646286898462C
S2140829500F469146FFF76AFF294B1C68D4F84831A2
S214082960002B3ED05A681F2A1CDC02F1010E76B1F5
S214082970012103EB8204C4F88890D3F888019140BB
S2140829800843022EC3F88801C4F8088123D002320F
S214082990C3F804E0286843F82270FFF749FF0020D0
S2140829A0BDE8F883174B0BB34FF4C870FFF71EF853
S2140829B00346D8B10020D4F848114FF0010E5860ED
S2140829C019600246C4F84831C3F88801C3F88C0178
S2140829D0002EDCD0CCE7D3F88C010143C3F88C1169
S2140829E0D5E704F5A673C4F84831BBE72868FFF7AF
S2140829F01FFF4FF0FF30BDE8F88300BF702A07209E
S214082A00802F0800ED19080038B50023064C054647
S214082A1008462360FEF79EFF431C00D038BD236897
S214082A20002BFBD02B6038BD782B072070B559B12A
S214082A3005460C4610B1836B002B3CD0636ED80756
S214082A4005D5B4F90C302BB90026304670BDA389DD
S214082A5099053CD521462846FFF73CFCE36A06461E
S214082A6033B1E169284698470028B8BF4FF0FF36CB
S214082A70A3891A0622D4216B41B104F14003994276
S214082A8002D02846FFF7C0FD00232363616C21B1FE
S214082A902846FFF7B9FD00236364FFF73FFD0022D1
S214082AA0636EA281DB070ED5A06DFFF7BDFEFFF7AC
S214082AB03BFD304670BDFFF701FDBFE7216928469C
S214082AC0FFF7A2FDD7E7A06DFFF7B2FEECE7A06D13
S214082AD0FFF7ACFEB4F90C30002BBBD1666E16F0CF
S214082AE00106B1D1A06DFFF7A3FE304670BD00BF4A
S214082AF070B50D460023074C064611462846236047
S214082B00FEF72BFF431C00D070BD2368002BFBD0BC
S214082B10336070BD782B0720F8B50E460025084CA4
S214082B20114607461A4630462560FEF71BFF431C2B
S214082B3000D0F8BD2368002BFBD03B60F8BD00BF73
S214082B40782B0720F8B50E460025084C1146074690
S214082B501A4630462560FDF7BFFD431C00D0F8BD79
S214082B602368002BFBD03B60F8BD00BF782B0720FE
S214082B7000000000963007772C610EEEBA510999CE
S214082B8019C46D078FF46A7035A563E9A395649E2A
S214082B903288DB0EA4B8DC791EE9D5E088D9D2974E
S214082BA02B4CB609BD7CB17E072DB8E7911DBF90AA
S214082BB06410B71DF220B06A4871B9F3DE41BE84CE
S214082BC07DD4DA1AEBE4DD6D51B5D4F4C785D3832A
S214082BD056986C13C0A86B647AF962FDECC9658ACE
S214082BE04F5C0114D96C0663633D0FFAF50D088D2A
S214082BF0C8206E3B5E10694CE44160D5727167A2CE
S214082C00D1E4033C47D4044BFD850DD26BB50AA529
S214082C10FAA8B5356C98B242D6C9BBDB40F9BCAC4D
S214082C20E36CD832755CDF45CF0DD6DC593DD1ABA9
S214082C30AC30D9263A00DE518051D7C81661D0BFCD
S214082C40B5F4B42123C4B3569995BACF0FA5BDB829
S214082C509EB802280888055FB2D90CC624E90BB1CD
S214082C60877C6F2F114C6858AB1D61C13D2D66B629
S214082C709041DC760671DB01BC20D2982A10D5EF8D
S214082C808985B1711FB5B606A5E4BF9F33D4B8E8E9
S214082C90A2C9077834F9000F8EA8099618980EE18D
S214082CA0BB0D6A7F2D3D6D08976C6491015C63E6E9
S214082CB0F4516B6B62616C1CD83065854E0062F20D
S214082CC0ED95066C7BA5011BC1F4088257C40FF569
S214082CD0C6D9B06550E9B712EAB8BE8B7C88B9FC8D
S214082CE0DF1DDD62492DDA15F37CD38C654CD4FBE9
S214082CF05861B24DCE51B53A7400BCA3E230BBD48D
S214082D0041A5DF4AD795D83D6DC4D1A4FBF4D6D3E8
S214082D106AE96943FCD96E34468867ADD0B860DA8C
S214082D20732D0444E51D03335F4C0AAAC97C0DDDE8
S214082D303C710550AA41022710100BBE86200CC90C
S214082D4025B56857B3856F2009D466B99FE461CE68
S214082D500EF9DE5E98C9D9292298D0B0B4A8D7C78C
S214082D60173DB359810DB42E3B5CBDB7AD6CBAC0E8
S214082D702083B8EDB6B3BF9A0CE2B6039AD2B17404
S214082D803947D5EAAF77D29D1526DB048316DC7360
S214082D90120B63E3843B64943E6A6D0DA85A6A7A04
S214082DA00BCF0EE49DFF099327AE000AB19E077D60
S214082DB044930FF0D2A3088768F2011EFEC2066984
S214082DC05D5762F7CB67658071366C19E7066B6EE0
S214082DD0761BD4FEE02BD3895A7ADA10CC4ADD6704
S214082DE06FDFB9F9F9EFBE8E43BEB717D58EB06060
S214082DF0E8A3D6D67E93D1A1C4C2D83852F2DF4F04
S214082E00F167BBD16757BCA6DD06B53F4B36B2485F
S214082E10DA2B0DD84C1B0AAFF64A0336607A044103
S214082E20C3EF60DF55DF67A8EF8E6E3179BE69465F
S214082E308CB361CB1A8366BCA0D26F2536E2685283
S214082E4095770CCC03470BBBB91602222F260555DF
S214082E50BE3BBAC5280BBDB2925AB42B046AB35C03
S214082E60A7FFD7C231CFD0B58B9ED92C1DAEDE5B5F
S214082E70B0C2649B26F263EC9CA36A750A936D0243
S214082E80A906099C3F360EEB85670772135700059F
S214082E90824ABF95147AB8E2AE2BB17B381BB60CC3
S214082EA09B8ED2920DBED5E5B7EFDC7C21DFDB0B1F
S214082EB0D4D2D38642E2D4F1F8B3DD686E83DA1F43
S214082EC0CD16BE815B26B9F6E177B06F7747B7189F
S214082ED0E65A0888706A0FFFCA3B06665C0B011143
S214082EE0FF9E658F69AE62F8D3FF6B6145CF6C169F
S214082EF078E20AA0EED20DD75483044EC2B3033943
S214082F00612667A7F71660D04D476949DB776E3E9E
S214082F104A6AD1AEDC5AD6D9660BDF40F03BD837C2
S214082F2053AEBCA9C59EBBDE7FCFB247E9FFB5301E
S214082F301CF2BDBD8AC2BACA3093B353A6A3B42442
S214082F400536D0BA9306D7CD2957DE54BF67D9239E
S214082F502E7A66B3B84A61C4021B685D942B6F2A42
S214082F6037BE0BB4A18E0CC31BDF055A8DEF022D9E
S214082F705545E892D6B16259FC8AC8F2D6E14A3578
S214082F8038220720F8B500BFF8BC08BC9E46704734
S214082F90B522080019010800F8B500BFF8BC08BC3F
S214082FA09E467047000000005FF800F045010720C5
S214082FB05FF800F0950007205FF800F0790007201A
S210082FC05FF800F075000720F500080018
S214082FCC70B483B0069D1A4CA04212D04FF440261B
S214082FDC5BB3046844F480340460C9B241F0B4416D
S214082FEC416081680191019911F0010FF9D1002116
S214082FFC07E04FF40026EBE756F8214043F821404B
S21408300C0131A942F8D3D2B242F0B4424260836886
S21408301C0193019B13F0010FF9D0036823F4803356
S21408302C0360002003B070BC70470220FAE700BFAC
S21408303C000A0E400160704782B0416083680193B5
S21408304C019B13F0010FF9D0019800F0060002B0AE
S21408305C704700BFBFF35F8F0138FBD17047000085
S21408306C4FF48063204A136002F5007213601F4BFE
S21408307C1B6A13F0807F07D11D4A1C4B1A621B4B28
S21408308C9B6E13F0010FFAD01A4A184B1A62174B9C
S21408309C9B6E13F4803FFAD0144A136B23F0030389
S2140830AC43F001031363114B9B6E13F0080FFAD011
S2140830BC114A0E4B9A620D4B9B6E13F0020FFAD008
S2140830CC11220A4B1A63094B9B6E13F0080FFAD0A1
S2140830DC1222064B1A63054B9B6E13F0080FFAD098
S2140830EC064A074B1A607047000A0E4000060E4048
S2140830FC0908370009083701013F0D2000BD0105F6
S21408310C302207201E4B984213D91E4B984217D9CB
S21408311C1D4B98421CD91D4B984221D91C4B9842E2
S21408312C26D94FF4A0631B4A136002F5007213608D
S21408313C70470023174A136002F500721360704735
S21408314C4FF48073134A136002F5007213607047CD
S21408315C4FF400730F4A136002F500721360704741
S21408316C4FF440730B4A136002F5007213607047F5
S21408317C4FF48063074A136002F5007213607047B9
S21408318CBFEA21017FF0FA02FF8FD003FFB3C40415
S21408319C7F4A5D05000A0E40100A00000000000079
S2140831AC0000000000000000000000000000000006
S2140831BC00000000000000000000000000000000F6
S2140831CC00000000000000000000000000000000E6
S2140831DC00000000000000000000000000000000D6
S2140851CC0000000000000000000000005910080055
S2140851DCD90F08001D0F0800690E0800350E0800C8
S2140851ECF50D0800590D0800B10C08000100000068
S2140851FC00093D003822072000000000242507205F
S21408520C8C250720F425072000000000000000006D
S21408521C0000000000000000000000000000000075
S21408522C0000000000000000000000000000000065
S21408523C0000000000000000000000000000000055
S21408524C0000000000000000000000000000000045
S21408525C0000000000000000000000000000000035
S21408526C0000000000000000000000000000000025
S21408527C0000000000000000000000000000000015
S21408528C0000000000000000000000000000000005
S21408529C00000000000000000000000000000000F5
S2140852AC01000000000000000E33CDAB34126DE692
S2140852BCECDE05000B0000000000000000000000FB
S2140852CC00000000000000000000000000000000C5
S2140852DC00000000000000000000000000000000B5
S2140852EC00000000000000000000000000000000A5
S2140852FC0000000000000000000000000000000095
S21408562C0000000000000000602607206026072007
S21408563C682607206826072070260720702607206D
S21408564C782607207826072080260720802607201D
S21408565C88260720882607209026072090260720CD
S21408566C9826072098260720A0260720A02607207D
S21408567CA8260720A8260720B0260720B02607202D
S21408568CB8260720B8260720C0260720C0260720DD
S21408569CC8260720C8260720D0260720D02607208D
S2140856ACD8260720D8260720E0260720E02607203D
S2140856BCE8260720E8260720F0260720F0260720ED
S2140856CCF8260720F826072000270720002707209B
S2140856DC0827072008270720102707201027072049
S2140856EC18270720182707202027072020270720F9
S2140856FC28270720282707203027072030270720A9
S21408570C3827072038270720402707204027072058
S21408571C4827072048270720502707205027072008
S21408572C58270720582707206027072060270720B8
S21408573C6827072068270720702707207027072068
S21408574C7827072078270720802707208027072018
S21408575C88270720882707209027072090270720C8
S21408576C9827072098270720A0270720A027072078
S21408577CA8270720A8270720B0270720B027072028
S21408578CB8270720B8270720C0270720C0270720D8
S21408579CC8270720C8270720D0270720D027072088
S2140857ACD8270720D8270720E0270720E027072038
S2140857BCE8270720E8270720F0270720F0270720E8
S2140857CCF8270720F8270720002807200028072096
S2140857DC0828072008280720102807201028072044
S2140857EC18280720182807202028072020280720F4
S2140857FC28280720282807203028072030280720A4
S21408580C3828072038280720402807204028072053
S21408581C4828072048280720502807205028072003
S21408582C58280720582807206028072060280720B3
S21408583C6828072068280720702807207028072063
S21408584C7828072078280720802807208028072013
S21408585C88280720882807209028072090280720C3
S21408586C9828072098280720A0280720A028072073
S21408587CA8280720A8280720B0280720B028072023
S21408588CB8280720B8280720C0280720C0280720D3
S21408589CC8280720C8280720D0280720D028072083
S2140858ACD8280720D8280720E0280720E028072033
S2140858BCE8280720E8280720F0280720F0280720E3
S2140858CCF8280720F8280720002907200029072091
S2140858DC082907200829072010290720102907203F
S2140858EC18290720182907202029072020290720EF
S2140858FC282907202829072030290720302907209F
S21408590C382907203829072040290720402907204E
S21408591C48290720482907205029072050290720FE
S21408592C58290720582907206029072060290720AE
S21408593C682907206829072070290720702907205E
S21408594C782907207829072080290720802907200E
S21408595C88290720882907209029072090290720BE
S21408596C9829072098290720A0290720A02907206E
S21408597CA8290720A8290720B0290720B02907201E
S21408598CB8290720B8290720C0290720C0290720CE
S21408599CC8290720C8290720D0290720D02907207E
S2140859ACD8290720D8290720E0290720E02907202E
S2140859BCE8290720E8290720F0290720F0290720DE
S2140859CCF8290720F8290720002A0720002A07208C
S2140859DC082A0720082A0720102A0720102A07203A
S2140859EC182A0720182A0720202A0720202A0720EA
S2140859FC282A0720282A0720302A0720302A07209A
S214085A0C382A0720382A0720402A0720402A072049
S214085A1C482A0720482A0720502A0720502A0720F9
S214085A2C582A0720582A0720FFFFFFFF000002000D
S208085A3C542B0720B3
S80408178D4F
