S0100000415453414D3358382E73726563DB
S214080000C8EF07205D1A0800591A0800591A080090
S214080010591A0800591A0800591A08000000000062
S214080020000000000000000000000000591A080048
S214080030591A080000000000591A0800591A080042
S214080040591A0800591A0800591A0800591A0800B7
S214080050591A0800591A0800591A0800591A0800A7
S214080060591A0800591A080000000000211608004E
S2140800703116080041160800511608000000000056
S21408008000000000591A0800591A0800591A0800F2
S214080090591A0800591A0800591A0800591A080067
S2140800A0591A080000000000591A0800591A0800D2
S2140800B0591A0800591A0800591A0800591A080047
S2140800C0591A0800591A0800591A0800591A080037
S2140800D0591A0800591A0800591A0800591A080027
S2140800E0591A0800591A0800591A0800591A080017
S2140800F0591A080010B5054C237833B9044B13B1C8
S2140801000448AFF300800123237010BD802A07201F
S21408011000000000DC3108000C4B43B10C4810B559
S2140801200C49AFF300800C48036823B910BD0A4891
S214080130036833B97047094B002BF7D0BDE8104069
S2140801401847064B002BF5D0184700BF00000000E4
S214080150DC310800842A0720DC3108000000000093
S214080160C068704708B5120202F47062114303F0C3
S2140801702BF8002008BD0000A1F10E03012B02D8C1
S2140801804FF0FF30704710B582B0EFF31083B3FA24
S21408019083F35B09019372B6BFF35F8F00240B4BA2
S2140801A01C70019C120222F07F4222F0FF02C9B2A4
S2140801B0114341F0B44103F003F82CB10122034B7C
S2140801C01A70BFF35F8F62B602B010BD38220720E0
S2140801D038B504460D460A4601460548FFF7C2FFED
S2140801E02A4621460348FFF7BDFF002038BD00BF5A
S2140801F0000A0E40000C0E4038B5022802D9112518
S214080200284638BD044600220D210848FFF7B4FFEB
S214080210054608B11025F3E70448FFF7A1FF0123B8
S21408022003FA04F42042EBD01D46E9E7000A0E4024
S214080230022802D911231846704710B50446FFF75E
S214080240DBFF012809D022460B210548FFF794FF5B
S214080250034600B11023184610BD0023FBE700BF75
S214080260000A0E4008B50020FFF7E2FF08BD08B5F3
S2140802700020FFF7C1FF08BD431003F055034000F8
S21408028020F0550040B20343DBB2981000F033006C
S2140802909B0023F033035BB20343DBB2180940EA42
S2140802A00310C0B27047000028B130B404460022DC
S2140802B04FF0FF300DE04FF0FF30C0437047237813
S2140802C04340DBB2054D55F8233083EA102001324F
S2140802D001348A42F3D3C04330BC7047842D0800EB
S2140802E010B542F24843084AD4585CB11046918883
S2140802F00830FFF7D9FF844201D1002010BD4FF027
S214080300FF3010BD002010BD682B072010B542F244
S2140803104C43084AD45854B1D1880748FFF7C4FF5D
S214080320844201D1002010BD4FF0FF3010BD0020E0
S21408033010BD00BF682B0720904B072070B582B011
S21408034000238DF8073088B105460E461C4608E09F
S214080350285DFFF791FF8DF807009DF807302B55AD
S2140803600134B442F4D3002002B070BD4FF0FF3021
S214080370FAE7000010B582B000238DF807303D4A32
S2140803803D4B5A603C493D4800F0BCFA0028F9D17C
S21408039000238DF80730012302223949374800F038
S2140803A0E9F98DF807009DF807305BB213F1030FE3
S2140803B049D0012302223349304800F0DBF98DF892
S2140803C007009DF807305BB213F1030F3ED02A4BA7
S2140803D01A89002A3DD042F220039A423CD8264B7E
S2140803E01B782B2B05D03B2B03D02C2B01D03C2B7A
S2140803F035D1012320494968204800F0BBF98DF81B
S21408040007009DF807305BB213F1030F2AD00123CB
S21408041004221D49194800F0ADF98DF807009DF82B
S21408042007305BB213F1030F1FD0134BDC68FCB127
S21408043019895868FFF738FF844201D1002009E07F
S2140804404FF0FF3006E04FF0FF3003E04FF0FF308C
S21408045000E0002002B010BD4FF0FF30FAE74FF082
S214080460FF30F7E74FF0FF30F4E74FF0FF30F1E7E3
S2140804700020EFE7DC010720542B072000080E4079
S214080480562B07205C2B0720602B072030B583B03F
S214080490904B1B788DF8073006238DF806309DF8AC
S2140804A00730093B342B00F21081DFE813F03500E3
S2140804B04C006200A700E6000E010E010E010E01B8
S2140804C00E010E010E010E010E010E010E010E01A7
S2140804D00E017E00BD00FC000E010E010E010E018D
S2140804E00E010E010E010E010E010E010E010E0187
S2140804F00E0157009C00DB000E010E010E010E01D6
S2140805000E010E010E010E010E010E010E010E0166
S2140805100E017300B200F1006F4B1B689847002865
S2140805200FDB06238DF806309DF80640E4B2214618
S2140805306A4800F0DEF90028F9D19DF8060003B0F5
S21408054030BD9023EEE7644B5B689847002803DBD2
S21408055006238DF80630E7E7A023FAE75E4B9B688C
S2140805609847002803DB06238DF80630DCE7B2231D
S214080570FAE7FFF7B5FE034628B1002B08DB06238B
S2140805808DF80630D0E7544BDB6898470346F4E707
S214080590B023F5E7504B1B699847002803DB062372
S2140805A08DF80630C0E7B323FAE7FFF7AFFE044638
S2140805B028B1002C15DB06238DF80630B4E7484C26
S2140805C04FF480652A464749204601F077FB2946BE
S2140805D02046FFF7B3FE04463F4B5B699847044343
S2140805E0E7E7B123E8E73C4B9B6A9847002803DB1C
S2140805F006238DF8063097E7C223FAE7364BDB6A00
S2140806009847002803DB06238DF806308CE7C023BE
S214080610FAE7314B1B6B9847002803DB06238DF857
S214080620063081E7C323FAE7FFF770FE044628B1D1
S214080630002C15DB06238DF8063075E7284C4FF49A
S21408064080652A462749204601F038FB2946204679
S214080650FFF774FE0446204B5B6B98470443E7E7B6
S214080660C123E8E71C4B9B699847002803DB062351
S2140806708DF8063058E7D223FAE7174BDB69984718
S214080680002803DB06238DF806304DE7D023FAE76B
S214080690114B1B6A9847002803DB06238DF80630A3
S2140806A042E7D323FAE70B4B19895868FFF746FE4B
S2140806B00446094B5B6A984754EA000303D40623AA
S2140806C08DF8063030E7D123FAE766238DF8063032
S2140806D02AE700BF542B07200022072000080E40F8
S2140806E0DC010720904B0720F8B504460F4616464F
S2140806F007E02946204600F0FCF80028F9D1013E1C
S21408070001375EB33D78164B9C42F2D0154B9C429F
S2140807100FD0154B9C4213D0144B9C4217D0144B49
S2140807209C42ECD12946204600F0F6F80028F9D17C
S214080730E5E72946204600F0EFF80028F9D1DEE77D
S2140807402946204600F0E8F80028F9D1D7E72946D8
S214080750204600F0E1F80028F9D1D0E70020F8BDDF
S21408076000080E400080094000C0094000000A400A
S21408077000400A402DE9F04182B004460D4617466F
S214080780984631E02A4E2946204600F0BBF838B194
S214080790B8F1000FF7D0013EF5D16FF002062AE057
S2140807A0002628E001A9204600F0C1F80028F9D163
S2140807B09DF804302B7021E001A9204600F0B7F818
S2140807C00028F9D19DF804302B701AE001A92046BC
S2140807D000F0ADF80028F9D19DF804302B7013E02E
S2140807E0002E22DB013F0135DFB100230193114BB8
S2140807F09C42C7D00026104B9C42D3D00F4B9C423D
S214080800DAD00F4B9C42E1D00E4B9C42E8D101A9AE
S214080810204600F08CF80028F9D19DF804302B709B
S214080820DEE7002002B0BDE8F0816FF00200F9E7CD
S21408083020A1070000080E400080094000C00940BB
S21408084000000A4000400A4070B50D4614460646A9
S21408085058B14FF0FF360AE0064B1868064B1B687F
S2140808602946984701350136013C002CF4DC304611
S21408087070BD00BFC04F0720B84F072070B50138BD
S21408088002280FD8144600258CB10A4B18684E1C4F
S214080890094B1B6809789847002806DB0135013C98
S2140808A03146F1E74FF0FF3501E04FF0FF352846B7
S2140808B070BD00BFC04F0720BC4F072010B4AC2344
S2140808C003600B684A68B3FBF2F31B095C1E4FF61D
S2140808D0FE7294420BD803628B68436040F2022390
S2140808E0C0F8203150230360002010BC7047012058
S2140808F0FBE7436913F0020F02D0C161002070477E
S21408090001207047436913F0010F03D083690B7009
S2140809100020704701207047436913F0020F04D087
S214080920C1F30801C1610020704701207047436980
S21408093013F0010F05D08369C3F308030B6000208A
S2140809407047012070474FF400434360704700002B
S2140809503B4B1B68082B02D90022394B1A60394BCF
S2140809605B78092B1FD010B582B0354B1B681BBBB4
S2140809701E2002F021FC01224FF08061324800F070
S2140809806EFD0B222F4B5A700023304A13702C4AE8
S21408099013602B4A136801331360082B27D82B4B98
S2140809A0187802B010BD0A22264B5A700022244B33
S2140809B01A60264B187870474FF080624FF0205127
S2140809C0214800F001FD1E4B1B68013B98401F4A5A
S2140809D01378184310701E4C4FF48041204600F0E0
S2140809E0F1FC4FF48041204600F0EAFCD1E70024F1
S2140809F04FF400424FF02051154800F0E5FC01285E
S214080A0009D1062002F0D8FB0134B4F5886FEFD37D
S214080A104FF0FF3300E00023002B01DAFF20C0E789
S214080A200122009200234FF08061074800F037FD4E
S214080A301E2002F0C1FB0C22024B5A70AFE700BF23
S214080A409C2A0720D801072000100E40A42A072059
S214080A50000E0E4038B50546334B1B68072B02D9E7
S214080A600022314B1A60314B5B780A2B1ED02E4B76
S214080A701B683BB915F0010F1FD04FF080612C485A
S214080A8000F09EFC00244FF400424FF02051294805
S214080A9000F09AFC012816D1062002F08DFB0134DE
S214080AA0B4F5886FEFD34FF0FF330DE00B221F4BE2
S214080AB05A7000221C4B1A60D9E74FF080611C4818
S214080AC000F080FCDEE70023002B29DB164B1B68B2
S214080AD0062B0AD8013345FA03F313F0010F0CD09E
S214080AE04FF08061124800F06BFC0F4A1368013320
S214080AF01360072B07D8284638BD4FF080610C488E
S214080B0000F060FCF1E74FF08061094800F058FCFF
S214080B1040F6B83002F050FB0C22044B5A70EAE755
S214080B204FF0FF3038BD00BFA02A0720D8010720A5
S214080B3000100E40000E0E4070B582B04FF40062F2
S214080B403A4BC3F880203A4D4FF40021284600F06F
S214080B5039FC384E304602F02FFB374C0123009301
S214080B6000231A464FF08061204600F098FC304675
S214080B7002F022FB4FF40021284600F021FC40F644
S214080B803C7002F019FB4FF08061204600F018FC1C
S214080B9000244FF400424FF02051254800F014FC82
S214080BA0012809D1062002F007FB0134B4F5886F46
S214080BB0EFD34FF0FF3300E00023002B2FDB0C2091
S214080BC002F0FAFA1C4C4FF08061204600F0FAFB5F
S214080BD009221A4B5A704FF40062144B1A603C20D4
S214080BE002F0EAFA01224FF08061204600F037FC56
S214080BF00024124B5B780C2B07D00134104B9C4218
S214080C0010D8062002F0D8FAF3E70C4B9B78552B41
S214080C1002D1002002B070BD4FF0FF30FAE74FF067
S214080C20FF30F7E74FF0FF30F4E700BF00E100E0E1
S214080C30000E0E40C027090000100E40D8010720FD
S214080C403F0D030070B582B01646204B9870D970D9
S214080C501B78102B01D000250EE040F6B83002F0C5
S214080C60ABFAF8E70023002B2CDB013542F224030D
S214080C70164AD550AE421FD9B54220D2134B202271
S214080C801A700A225A700123009300231A464FF05E
S214080C9080610F4800F003FC00240C4B5B780C2B9B
S214080CA0E0D001340B4B9C4203D8062002F084FAAD
S214080CB0F3E74FF0FF33D6E70021D150DCE70020FA
S214080CC002B070BD4FF0FF30FAE700BFD80107202A
S214080CD000100E403F420F0070B582B006461F4B0C
S214080CE01B78202B01D000250EE040F6B83002F025
S214080CF063FAF8E70023002B2CDB013542F22403C5
S214080D00164AD550AE421FD9B54220D2134B1022F0
S214080D101A700A225A700123009300231A464FF0CD
S214080D2080610F4800F0BBFB00240C4B5B780C2B53
S214080D30E0D001340B4B9C4203D8062002F03CFA64
S214080D40F3E74FF0FF33D6E70021D150DCE7002069
S214080D5002B070BD4FF0FF30FAE700BFD801072099
S214080D6000100E403F420F000B2800D07047B1F528
S214080D70004FFBD138B50B4B1B78102B08D0094B0E
S214080D8042F224029A5813449878FFF763FE38BD57
S214080D90044C42F22403E558FFF7DAFD2C44A07011
S214080DA038BD00BFD8010720194B1B89B3F5806FE3
S214080DB027D810B5012200210E20FFF743FF04466E
S214080DC04FF48060FFF788FF20431DD4002301E01E
S214080DD001339BB20E4A1289934211D2032BF7D9DC
S214080DE0A3F5FA7292B20B2AF2D90A4A1A44117A71
S214080DF0094A1A4492789142EAD04FF0FF3010BD63
S214080E0010BD4FF0FF3070474FF0FF3010BD00BFE9
S214080E10542B0720682B0720D8010720164B1B8960
S214080E20B3F5005F1ED810B5012200210F20FFF78A
S214080E3009FF04464FF40050FFF74EFF204314D432
S214080E4000230D4A1289013A93420ADA0B4A1A44D9
S214080E50117A0B4A1A449278914209D101339BB20F
S214080E60EFE710BD4FF0FF3070474FF0FF3010BD72
S214080E704FF0FF3010BD00BF542B0720682B07200B
S214080E80D801072030B583B000238DF807308DF8D9
S214080E9006307F2822D1134B42F226229A5C8DF820
S214080EA0072042F227229B5C8DF806309DF8063014
S214080EB00D4D2B719DF8071003221420FFF7C2FE74
S214080EC004460120FFF708FF2043AB7813F0C00F55
S214080ED001D103B030BD4FF0FF30FAE74FF0FF30D6
S214080EE0F7E700BF682B0720D80107200E4B5B6882
S214080EF0B3B110B51C785A7844EA02249A7844EAC2
S214080F000244DB7844EA0364084BD9880848FFF7AC
S214080F10CBF9844201D1002010BD4FF0FF3010BD40
S214080F204FF0FF30704700BF542B0720682B072070
S214080F30904B07200E4B5B68B3B110B51C785A78F7
S214080F4044EA02249A7844EA0244DB7844EA0364D2
S214080F50084881880830FFF7A7F9844201D10020A5
S214080F6010BD4FF0FF3010BD4FF0FF30704700BF88
S214080F70542B0720682B072038B5012200210E20A5
S214080F80FFF760FE4FF48060FFF7A6FE044608B140
S214080F90204638BD064D4FF480612846FFF7CEF947
S214080FA04FF4806229460348FFF79EFBF0E700BF30
S214080FB0DA01072000080E4010B542F24C430C4AEE
S214080FC0D3584BB11446D1880A48FFF76DF942F258
S214080FD04C43E358984207D14FF4806205490648C7
S214080FE0FFF782FB002010BD4FF0FF3010BD00BF9A
S214080FF0682B0720904B072000080E4010B50122EA
S21408100000210F20FFF71EFE4FF40050FFF764FE86
S214081010044608B1204610BD4FF400520249034862
S214081020FFF762FBF6E700BFDA01072000080E406C
S21408103010B542F24C430C4AD35853B11446918823
S21408104002F10800FFF730F942F24843E3589842A5
S21408105007D14FF4005205490548FFF745FB002025
S21408106010BD4FF0FF3010BD682B0720702B0720EF
S21408107000080E40F8B5234A5388C3F38705D2887C
S2140810801344B3F5806F35DC970807B901270024A9
S214081090264602E07F2924D00134BC422FD22919E3
S2140810A0F8D0A1F17D03022BF4D924B1164B03EB3B
S2140810B0810252685A6006220A20FFF7C3FD0643DB
S2140810C047F2305002F078F80120FFF705FE064395
S2140810D013D40D4B9B7813F0C00FDDD04FF0FF36BE
S2140810E00DE02819C0B2FFF7CDFE061ED4DA4FF081
S2140810F0FF3604E04FF0FF3601E04FF0FF3630468B
S214081100F8BD00BF682B0720D8010720F0B585B0CA
S2140811101C4B6C46186859689A68DB680FC401222D
S21408112000210820FFF78EFD04460120FFF7D4FDB6
S2140811300443154B9B78882B20D1134E6D460FCD54
S214081140C6F80200C6F80610C6F80A20C6F80E301A
S214081150102245215520FFF775FD04430B4802F081
S2140811602BF80120FFF7B8FD2043B37813F0C00F23
S21408117001D105B0F0BD4FF0FF30FAE74FF0FF3071
S214081180F7E700BF84310800D8010720C027090008
S2140811902DE9F0411E4B5E686EB35F887FBB1D89E4
S2140811A0B5F5806F2FD8DFF870804FF48062002185
S2140811B0404600F0F9FD174CE5806780144BDB6865
S2140811C042F24C47E3512A463146404600F076FD47
S2140811D0E35913B90020BDE8F08129464046FFF7D9
S2140811E063F8E359984202D10020BDE8F0814FF039
S2140811F0FF30BDE8F0814FF0FF30BDE8F0814FF0DA
S214081200FF30BDE8F0814FF0FF30BDE8F08100BF49
S214081210542B0720682B0720904B07202DE9F8430E
S214081220214A1388C3F3870892881344B3F5005FEE
S21408123031DC570907B901270026B146BE422FD22E
S21408124008EB060E4FEA4E150835174B1D44174C8B
S21408125028686968AA68EB680FC428696969AA6972
S214081260EB690FC4222271460920FFF7EBFC49EA16
S214081270000947F2305001F09FFF0120FFF72CFDD0
S21408128059EA00090CD4A4F124039B7813F0C00F84
S21408129004D10136D2E74FF0FF3901E04FF0FF39AD
S2140812A04846BDE8F88300BF682B0720DC01072006
S2140812B0F8B51B4B5E6856B35F885FBB1D89B5F5EE
S2140812C0005F2AD8174C4FF400520021204600F041
S2140812D06BFD24F8045C24F8087C114BDB6804F5E5
S2140812E011573B602A463146204600F0E7FC3B682B
S2140812F00BB90020F8BD29462046FEF7D5FF3B6807
S214081300984201D10020F8BD4FF0FF30F8BD4FF0ED
S214081310FF30F8BD4FF0FF30F8BD4FF0FF30F8BD96
S214081320542B0720702B072010B5FFF705FC044642
S2140813301E2001F041FF012200210220FFF782FC57
S214081340044341F2707001F037FF0220FFF7C4FC37
S214081350204310BD08B50E4801F03AFF3E21002094
S21408136000F0A8F900F0D0F90028FBD000F0D4F976
S214081370084A094B9A6200F0D7F90028FBD01020DB
S21408138000F06EF900F0A4FB014801F021FF08BD4B
S21408139000BD0105013F0D2000060E400AB9016692
S2140813A0704741667047C0F8841053004FF40042F7
S2140813B0B2FBF3F2013AC2F30D02C0F88C20704774
S2140813C00163704741637047B1F1405F07D0B1F1E0
S2140813D0605F04D0C36B134203D001207047836B51
S2140813E0F9E7002070474264B1F1805F16D00BD849
S2140813F049B1B1F1006F05D1016F036F21EA02010F
S2140814000B40036742607047B1F1405FFBD0B1F113
S214081410605FF8D0B1F1205FF4D17047036F1343D3
S2140814200367EFE712F0100F12D0C0F8B01012F0F2
S214081430200F07D0C0F8D41012F0400F05D0C0F81F
S214081440C0107047C0F8D010F6E7C0F8C410704750
S214081450C0F8B4107047016470474164704770B5AF
S21408146004460D461646FFF7F8FF06F00102294621
S2140814702046FFF793FF16F00A0F09D0256216F0EC
S214081480020F07D116F0080F06D0C4F8845003E000
S2140814906562F4E7C4F880506561256070BDF8B5EC
S2140814A004460D4616461F46FFF7D7FF069A2946F6
S2140814B02046FFF773FF2FB125652EB965632561B2
S2140814C02560F8BD6565F8E72563F8E7C06C7047E2
S2140814D0806C704770B582B005460E46144602F01A
S2140814E0F043B3F1205F29D012D8B3F1006F17D0BC
S2140814F0B3F1805F12D10A464FF08051FFF773FFB1
S21408150004F0010231462846FFF748FF012013E0A1
S214081510B3F1405F16D0B3F1605F13D000200BE044
S2140815200A464FF00061FFF75EFF04F001023146FD
S2140815302846FFF733FF012002B070BDFFF78FFF84
S2140815400120F9E704F0605204F001030093C4F3A5
S2140815508003B2F1605F14BF00220122314628469C
S214081560FFF79DFF0120E7E7F8B504460E46FFF7AC
S214081570ADFF05462046FFF7ABFF054001D0002427
S21408158003E0F8BD0134062C11D88DB12301094AB1
S214081590D058B042F6D102EB041359680D42F1D088
S2140815A01F46DB6898477B6825EA0305EAE7F8BD27
S2140815B0F8BD00BFA82A0720F8B5174C2768062FDD
S2140815C028D84FF0000E744601E00134E4B2A44671
S2140815D0A7420AD3114E250106EB050E75598D4212
S2140815E0F3D1DEF804509542EFD1CEF80010CEF8CD
S2140815F00420CEF808300699CEF80C100137BC4502
S21408160005D011461A46FFF70DFF0020F8BD02491F
S2140816100F60F6E70120F8BD182B0720A82A072038
S21408162008B50B210148FFF79FFF08BD000E0E40C6
S21408163008B50C210148FFF797FF08BD00100E40BB
S21408164008B50D210148FFF78FFF08BD00120E40B0
S21408165008B50E210148FFF787FF08BD00140E40A5
S214081660134A136B23F07003184310634FF4006398
S2140816700F4A926E12F0080F02D1A3B1013BF7E7AA
S2140816800B4A136B23F0030343F0020313634FF470
S2140816900063074A926E12F0080F02D12BB1013B85
S2140816A0F7E700207047012070470120704700BF09
S2140816B000060E40D0B9114A136A23F45C1323F0CF
S2140816C00303090289B20B4343F45C1343F0010396
S2140816D013620A4B9B6E13F0010FFAD0074A136A7F
S2140816E043F09B7343F480331362704703490B6AD5
S2140816F0034A1A40034B13430B62704700060E401A
S214081700FCFFC8FE02003701024B986E00F48030DA
S214081710704700BF00060E404FF00052014B9A6219
S214081720704700BF00060E40024B986E00F002009D
S214081730704700BF00060E402C281ED81F280CD85D
S214081740114B9A6901238340934318D0012303FA67
S21408175000F00D4B18610020704720380A4BD3F86C
S21408176008210123834093430BD0012303FA00F09A
S214081770054BC3F800010020704701207047002081
S21408178070470020704700BF00060E4030B583B093
S2140817900C20FFF7D1FF01240094002322464FF0C7
S2140817A080610B48FFF77BFE0A4D009400231A461B
S2140817B04FF480412846FFF772FE009400231A462D
S2140817C04FF400212846FFF76AFE03B030BD00BF7D
S2140817D000100E40000E0E4010B582B00B20FFF72A
S2140817E0ABFF104C01224FF400412046FFF737FEAE
S2140817F00D4A4FF400412046FFF7D5FD0B4B0093EA
S21408180079234FF400420B212046FFF7D5FE4FF40C
S21408181000412046FFF71FFE4FF40062044B1A6093
S21408182002B010BD000E0E40A0860100690D08002B
S21408183000E100E0F0B583B004460D4600230193AE
S214081840254B98420FD00026244B9C421BD0244B95
S2140818509C4222D0234B9C4229D0234B9C4230D01A
S214081860304603B0F0BD1746204E29462046FFF7FF
S21408187049F830B1002FF8D0013EF6D16FF00206D5
S214081880E2E70026E0E701A92046FFF750F800281F
S214081890F9D19DF804302B70D9E701A92046FFF747
S2140818A046F80028F9D19DF804302B70D2E701A934
S2140818B02046FFF73CF80028F9D19DF804302B7035
S2140818C0CBE701A92046FFF732F80028F9D19DF8A2
S2140818D004302B70C4E700BF00080E4000800940A3
S2140818E000C0094000000A4000400A4020A1070046
S2140818F038B504460D461C4B98420DD01B4B9842F3
S21408190012D01B4B984217D01A4B98421CD01A4B31
S214081910984221D0002038BD29462046FEF7E9FF28
S2140819200028F9D1012038BD29462046FEF7F4FFE5
S2140819300028F9D1012038BD29462046FEF7ECFFDD
S2140819400028F9D1012038BD29462046FEF7E4FFD5
S2140819500028F9D1012038BD29462046FEF7DCFFCD
S2140819600028F9D1012038BD00080E400080094043
S21408197000C0094000000A4000400A4008B506209A
S214081980FFF7DAFE0720FFF7D7FE06210020FEF74E
S2140819901FFCFEF76CFC012801D0FEF763FC002054
S2140819A008BD000010B588B04FF4E13304934FF437
S2140819B000630693154A4FF440711548FFF78AFDF1
S2140819C00820FFF7B9FE134C134B1C60134A144B40
S2140819D01A60144A144B1A60144B0193049B029322
S2140819E0069B03930820FFF7A7FE01A92046FEF7EB
S2140819F065FF0F4C23680021986800F023FA2368D7
S214081A000021586800F01EFA08B010BD0100000852
S214081A10000E0E4000080E40C04F0720F1180800C0
S214081A20BC4F072035180800B84F072000BD010531
S214081A304022072008B5FFF78DFC0648FEF783FF0F
S214081A40FFF7A4FEFFF7C8FEFFF7ACFFFFF796FF09
S214081A5008BD00BF501A0E40FEE7000008B5154B3B
S214081A60154A9A4209D0134B134A03E011681960C5
S214081A700433043211498B42F8D3114B02E000229A
S214081A801A6004330F4A9342F9D30F4B23F060428F
S214081A9022F07F020D498A6003F16043B3F5801F88
S214081AA003D28B6843F000538B6000F0DFF800F039
S214081AB0C3F8FEE700000720DC310800802A07206C
S214081AC0802A0720C84F07200000080000ED00E025
S214081AD03E4B1B6B03F00303032B3FD8DFE803F0F2
S214081AE002112D2D3A4B5B6913F0800F04D04FF48A
S214081AF00042384B1A6031E04FF4FA42354B1A6010
S214081B002CE0324B1B6A13F0807F03D0324A314BED
S214081B101A6023E0314A2F4B1A602C4B1B6A03F0DD
S214081B207003102B05D0202B18D12B4A294B1A608E
S214081B3014E02B4A274B1A6010E0244B1B6A13F05C
S214081B40807F1AD0244A234B1A60204B1B6B03F065
S214081B500303022B24D0234A1E4B1A601B4B1B6B15
S214081B6003F07003702B29D0184B1A6BC2F30212BD
S214081B7018490B68D3400B607047184A154B1A6013
S214081B80124B1B6A03F07003102B05D0202BDCD1F8
S214081B90114A104B1A60D8E7114A0E4B1A60D4E760
S214081BA00A48826AC2F30A420A490B6802FB0333F0
S214081BB0826AD2B2B3FBF2F30B60CFE7054A13682A
S214081BC00949A1FB03135B081360704700060E4023
S214081BD0101A0E403C220720001BB70000093D00E3
S214081BE000127A00001C4E0EABAAAAAA0A4B1B6863
S214081BF053B1094B1B681A180849914208DB10466E
S214081C00054A106018467047054A034B1A60F0E705
S214081C104FF0FF30704700BF1C2B0720FC7F0820C2
S214081C20C8EF07204FF0FF3070474FF400534B6063
S214081C30002070470020704708B50A4B10221A701B
S214081C400A225A70FFF7F6FE05E066210648FEF7F8
S214081C5050FE0028F9D1FEF78DFB0028F5DBFEF7CD
S214081C6015FCF8E7D801072000080E4070B50F4E9F
S214081C700F4D761BB61018BF002405D0013455F852
S214081C80043B9847A642F9D10A4E0B4D01F084FA58
S214081C90761BB61018BF002406D0013455F8043B4E
S214081CA09847A642F9D170BD70BD00BFA4310800A0
S214081CB0A4310800AC310800A4310800844641EA83
S214081CC0000313F0030349D1403A23D30B6803609B
S214081CD04B6843608B688360CB68C3600B6903619D
S214081CE04B6943618B698361CB69C3610B6A036285
S214081CF04B6A43628B6A8362CB6AC3620B6B03636D
S214081D004B6B43638B6B8363CB6BC3634030403151
S214081D10403ADBD230320BD30B6803604B68436023
S214081D208B688360CB68C36010301031103AF3D2EA
S214081D300C3205D351F8043B40F8043B043AF9D278
S214081D40043208D0D2071CBF11F8013B00F8013B4B
S214081D5001D30B8803806046704700BF082A13D358
S214081D608B07B1D010F00303AED0C3F10403D21A28
S214081D70DB071CBF11F8013B00F8013BA4D331F880
S214081D80023B20F8023B9FE7043AD9D3013A11F800
S214081D90013B00F8013BF9D20B7803704B7843708F
S214081DA08B7883706046704770B4860746D0541E9A
S214081DB0002A41D0CAB2034602E014F1FF343BD3EE
S214081DC003F8012B9D07F8D1032C2ED9CDB245EA8E
S214081DD005250F2C45EA054519D9264603F11002B4
S214081DE0103E0F2E42F8105C42F80C5C42F8085C75
S214081DF042F8045C02F11002F2D8A4F1100222F0B4
S214081E000F0204F00F041032032C13440DD91E469B
S214081E102246043A032A46F8045BFAD8221F22F020
S214081E2003020432134404F003042CB1C9B21C4460
S214081E3003F8011B9C42FBD170BC7047144603464E
S214081E40C2E700BF00290CBF022200224FF48063BD
S214081E5000F000B82DE9F043504D83B02D680446D5
S214081E600F4690461E4615B1AB6B002B77D0B8F1DF
S214081E70020F04D0B8F1010F7DD8002E7BDB214677
S214081E80284600F039F9216B41B104F14003994224
S214081E9002D0284600F038FA002323630022B4F95B
S214081EA00C30A26162601A0652D423F44A6323F007
S214081EB00303B8F1020FA38137D001AB6A46214667
S214081EC0284600F02FFBA3891843A08116B317B342
S214081ED0AB6B002B4BD0009B27609E42B4F90C30AE
S214081EE027611CBF43F40063A381B8F1010F04BF48
S214081EF043F00103A3819BB213F00800666123D068
S214081F0013F001002FD000207642A661A06003B02F
S214081F10BDE8F083009E304600F032FB074668B303
S214081F20A38943F08003A381D2E70020002501217E
S214081F3004F1430243F00203A381A56061612260B5
S214081F40226103B0BDE8F083A06003B0BDE8F0836B
S214081F502169284600F0D8F9B4F90C30A5E72846D8
S214081F6000F05EF983E7A66003B0BDE8F083284674
S214081F7000F056F9AFE74FF0FF30E2E7DDF80090E3
S214081F80B14506D0484600F0FBFA074608B14E466B
S214081F90C6E7B4F90C304FF0FF30C7E740220720F9
S214081FA0024B13B1024800F005B870470000000065
S214081FB035220800002301461A46184600F0FABDE6
S214081FC0B1F90C302DE9F0419AB20D46110780465A
S214081FD03AD46A6843F40063002AAB8170DDAC6AC1
S214081FE0002C4AD000229BB2D8F80060C8F800201F
S214081FF013F4805268D02A6D5F0705D569682B6B85
S214082000521A0BB1EB6BD21A0023E9694046A04777
S214082010441C3DD00021B5F90C302A6923F400632E
S214082020AB81DB0469602A6048D4296BC8F8006075
S21408203019B305F14003994202D0404600F064F90E
S21408204000202863BDE8F0812E69B6B1910718BF55
S21408205000232C6808BF6B692E60A41BAB600AE0DF
S214082060234632466F6AE9694046B8470028A4EB1B
S2140820700004064404DD002CF2DC0020BDE8F081F4
S214082080AB894FF0FF3043F04003AB81BDE8F081E9
S214082090D8F800401D2CF3D8164BE340DB4313F06A
S2140820A00103EDD1B5F90C20296922F40062AA8152
S2140820B0D2046B602960B8D5002CB6D12865B4E781
S2140820C0EA6B002A8BDCD8E70123E9694046A0477B
S2140820D0431C024602D0AB89AC6A8DE7D8F80030BC
S2140820E0002BF8D01D2B01D0162BC9D1C8F80060DC
S2140820F0C3E700BF0100402010B5044682B008B10F
S214082100836B53B1B1F90C0008B902B010BD204674
S21408211002B0BDE81040FFF753BF019100F080F809
S2140821200199EFE7014900F0D5B900BF852C0800F2
S2140821302DE9F04F07460024042303217D68334821
S21408214007F53B72F863C7F8E412C7F8E822C7F841
S214082150E04283B02C606C60AC606C66EC812C61ED
S2140821606C61AC61AB81214605F15C000822FFF783
S2140821701BFE01230922BE68DFF894B0DFF894A09E
S214082180DFF89490DFF89480C5F820B0C5F824A04E
S214082190C5F82890C5F82C80ED612146F381B281F8
S2140821A006F15C0034607460B4607466346174610F
S2140821B0B46108220193FFF7F7FD12200222FD689A
S2140821C02146F661C6F820B0C6F824A0C6F82890BE
S2140821D0C6F82C80A881EA812C606C60AC606C66BE
S2140821E02C616C61AC6105F15C000822FFF7DCFD30
S2140821F0019BED61C5F820B0C5F824A0C5F8289065
S214082200C5F82C80BB6303B0BDE8F08F2521080015
S214082210012B0800252B0800612B0800812B0800DD
S214082220836B03B17047FFF783BF00BF704700BFDB
S214082230704700BF38B50A4C0A4D641BA4100AD074
S21408224004F18043013B05EB8305013C55F804394E
S2140822509847002CF9D1BDE8384000F0A7BF00BF6A
S214082260DC310800D8310800F8B50C46234F06467E
S21408227000F030FCBB68C4F57E615D680F3125F060
S2140822800305294421F47F6121F00F01A1F580544C
S214082290B4F5805F07DB0021304600F01FFCBB6802
S2140822A02B44984204D0304600F016FC0020F8BDB7
S2140822B06142304600F012FC01300DD0104BBA686F
S2140822C019682D1B45F001053046091B5560196035
S2140822D000F002FC0120F8BD0021304600F0FEFBAD
S2140822E0BA68831A0F2BDEDD064C0549246843F0CE
S2140822F00103001B53600860D5E700BF702607205F
S214082300202B0720782A0720002944D02DE9F04101
S2140823100D46804600F0DEFB55F8047C6949A5F1B9
S214082320080427F00103E2188E685068B24220F0CD
S21408233003005ED0FE0750600BD455F8087C01F108
S214082340080EE41BA5683B4475456DD0E768EF604A
S214082350BD6015186D68ED073ED543F00102626052
S214082360E350B3F5007F17D20122DB0898104D68BA
S214082370134451F83370824001EBC3002A430838EF
S214082380E060A7604A6041F83340FC604046BDE81C
S214082390F04100F0A1BB70475A0A042A52D89A099D
S2140823A002F13907FF0002F13805C819CA5908387A
S2140823B090424FD0516821F003018B4232D2926886
S2140823C09042F7D1C368A060E3609C60C460404652
S2140823D0BDE8F04100F080BB95683B4F0344BD4222
S2140823E040D0D06843F00102E86085606260E35040
S2140823F0B7E7FF07034407D455F8085C641BE26890
S214082400A0682B44C2609060304A43F0010012680E
S214082410606093428C60B9D32D4B40461968FFF72D
S21408242023FFB3E71046CDE711184968C90744D417
S21408243091680344D26843F00100CA609160606006
S214082440E350A3E7142A16D802F15C07FF0002F14E
S2140824505B05AAE70123AA104D6893402B434B60FF
S2140824600346B0E743F001024C610C61E560A560E5
S2140824706260E3508AE7542A06D81A0B02F16F07FF
S214082480FF0002F16E0590E7B2F5AA7F06D8DA0BD0
S21408249002F17807FF0002F1770586E740F254500C
S2140824A0824206D89A0C02F17D07FF0002F17C05ED
S2140824B07BE74FF47E777E2577E743F0010161607E
S2140824C0136063E770260720782607207C2A0720F3
S2140824D0502B07202DE9F84310F538761ED088468D
S2140824E007464FF000097568B468013D10D4A38903
S2140824F0013D012B08D9B4F90E30013304D021462A
S2140825003846C04749EA00096B1C04F16804EED156
S2140825103668002EE7D14846BDE8F883B1464846F7
S214082520BDE8F88370B50C46B1F90E1090B00029D6
S21408253015461E4614DB01AA00F0E4FB00280FDB54
S214082540029A4FF4806302F47042A2F50052B2FA7F
S21408255082F24FF40060520932602B6010B070BDF2
S2140825600023A289336012F0800004D04022184667
S2140825702A6010B070BD4FF480632B6010B070BD39
S214082580024B0146186800F003B800BF4022072037
S2140825902DE9F04F01F10B06162E83B0054640F2E2
S2140825A09E8036F0070600F1BD80B14200F2BA8080
S2140825B000F090FAB6F5FC7FC0F08582730A00F04A
S2140825C0B880042B00F26C81B30903F1390003F1DB
S2140825D0380EC100B84F39444C680839A14206D1B4
S2140825E00CE0002A80F2AB80E468A14206D063685B
S2140825F023F003039A1B0F2AF3DD70463C69DFF8C5
S214082600CCE2744500F09E81636823F003039A1BAE
S2140826100F2A00F38381002AC7F814E0C7F810E0F1
S21408262080F29180B3F5007F80F054810122DB08A8
S21408263079684FEAA30C134457F8338002FA0CF271
S21408264007EBC30C0A43ACF10801E160C4F8088044
S2140826507A6047F83340C8F80C40012483109C4041
S21408266094427DD8144206D120F003006400144238
S21408267000F10400FAD007EBC009CC468046DCF827
S2140826800C309C4507D15FE1002A80F26D81DB683B
S2140826909C4500F05981596821F003018A1B0F2ACE
S2140826A0F2DDDC68D3F808C046F0010828461E4468
S2140826B042F00105C3F80480CCF80C40C4F808C002
S2140826C07E613E61C6F80CE0C6F808E075605A50B0
S2140826D0009300F001FA009B03F108041EE010299D
S2140826E020D800F0F7F9102618230220724F3B4432
S2140826F05C68A3F10802944200F02F816368E168E1
S21408270023F0030323445A68A66842F00102F160E6
S21408271028468E605A6000F0DFF90834204603B079
S214082720BDE8F08F00240C2320462B6003B0BDE8DC
S214082730F08F40204FF400714FF03F0E4AE72344D5
S2140827405A68E168E0E723445A68284642F00102DE
S2140827505A60083400F0C0F9204603B0BDE8F08F90
S214082760BC68636823F00308B04504D3A8EB0603E7
S2140827700F2B00F38580DFF85891504BD9F80020CE
S2140827801B680132334404EB080A00F0548103F551
S21408279080530F3323F47F6B2BF00F0B59462846D4
S2140827A000F09CF9411C024600F0FB80824500F2CE
S2140827B0F680434B19685944196000F04C81D9F8E3
S2140827C0000001301BBFA2EB0A0A5144C9F80020DA
S2140827D0196012F0070100F01481C1F10800C1F574
S2140827E080510244083102EB0B09C9F30B09A1EB2F
S2140827F00909494628460193009200F06FF9431CE0
S2140828009DE80C0000F04281801A484440F0010020
S2140828101968BC424944BA601960506017D0B8F1CC
S2140828200F0F40F2FA804FF0050C6268A8F10C0012
S21408283020F0070002F0010204EB000E02430F2806
S2140828406260CEF804C0CEF808C000F216811D4BB0
S214082850BC681A68914288BF19601B4B1A68914277
S214082860626888BF196022F003029642A2EB06034C
S21408287001D80F2B04DC284600F02EF900244DE77B
S21408288046F0010243F00103264462602846BE6013
S2140828900834736000F020F9204603B0BDE8F08FD6
S2140828A0142B70D9542B00F2A280330B03F16F005F
S2140828B003F16E0EC1008DE670260720502B072008
S2140828C0202B0720482B07204C2B0720782607208C
S2140828D0782A07205A0A042A5BD9142A00F2AE80FE
S2140828E002F15C01C9005B3207EB010C7958ACF1C8
S2140828F0080C8C4500F088804A6822F00302934250
S21408290073D289688C45F7D1DCF80C307A68E360B6
S214082910C4F808C09C60CCF80C409EE646F0010C53
S21408292042F001012644C4F804C028467E613E6190
S214082930C6F80CE0C6F808E07160E25000F0CCF883
S2140829400834EBE67A6888E608F1010818F0030F01
S2140829500CF1080C7FF493AE2DE0DC68A34208BFA8
S21408296002303FF44BAEC9E61C4619444A68DB6899
S21408297054F8086F42F001024A602846F3609E60E9
S21408298000F0AAF8CAE603F15C0003F15B0EC1008A
S21408299020E69A0902F13901C9003832A4E7BC4298
S2140829A054D0BC68626822F003025EE759F808391A
S2140829B0994540F0868010F0030F00F1FF30F5D1FE
S2140829C07B6823EA04037B6064009C423FF6C8AE3B
S2140829D0002C3FF4C5AE1C4240467FF44CAE640063
S2140829E01C4200F10400FAD045E68C468CE7B3F5A5
S2140829F0AA7F15D8F30B03F1780003F1770EC10010
S214082A00E8E54FF48051EEE601217B68921001FA62
S214082A1002F21A437A60634679E7012353602AE78D
S214082A2040F25452934222D8B30C03F17D0003F1CE
S214082A307C0EC100CEE503F1100BAFE6542A29D868
S214082A401A0B02F16F01C9006E324DE7204B196868
S214082A5059441960B3E6CAF30B0000287FF4AFAEFA
S214082A6008EB0B03BA6843F001035360EFE67F20D8
S214082A704FF47E714FF07E0EACE504F1080128464F
S214082A800093FFF741FC009B1968E0E601204FF031
S214082A900009BDE6B2F5AA7F05D8DA0B02F178017F
S214082AA0C900773220E740F254518A4205D89A0C7A
S214082AB002F17D01C9007C3216E74FF47E717E2252
S214082AC012E77B6880E7F00806F108030EE600BF09
S214082AD0202B0720704700BF704700BF38B500237B
S214082AE0064C054608462360FFF780F8431C00D0CE
S214082AF038BD2368002BFBD02B6038BDC44F072099
S214082B0010B50C46B1F90E1000F026F9002803DBC4
S214082B10236D0344236510BDA38923F48053A38142
S214082B2010BD00BF2DE9F0410C46B1F90C101F4648
S214082B30CB051646054607D5B4F90E100223002223
S214082B4000F0F4F8B4F90C1021F48051A1813B464A
S214082B503246B4F90E102846BDE8F04100F014B825
S214082B6010B50C46B1F90E1000F0E0F8A389421C27
S214082B700EBF23F4805343F480532065A38110BD11
S214082B80B1F90E1000F06CB8F8B50E460025084CE2
S214082B90114607461A4630462560FDF76FFE431C69
S214082BA000D0F8BD2368002BFBD03B60F8BD00BF03
S214082BB0C44F07202DE9F047274C07462668884665
S214082BC0D6F8484192469946002C3CD065681F2D99
S214082BD01ADC05F1010E7FB1012004EB8503C3F86A
S214082BE088A0D4F8881100FA05F21143022FC4F819
S214082BF08811C3F8089120D00235C4F804E00020F4
S214082C0044F82580BDE8F087144B0BB34FF4C87022
S214082C10FFF7B6FC0446D8B10020D6F848314FF086
S214082C20010E606023600546C6F84841C4F888016E
S214082C30C4F88C01002FDFD0CEE7D4F88C311A43C5
S214082C40C4F88C21D8E706F5A674C6F84841BDE74F
S214082C504FF0FF30BDE8F087943108008125080062
S214082C6038B50023064C054608462360FEF7DAFF0B
S214082C70431C00D038BD2368002BFBD02B6038BD22
S214082C80C44F072070B539B105460C4608B1836BAA
S214082C9083B3B4F90C3013B90026304670BD21460C
S214082CA02846FFF78DF9E36A064633B1E1692846F8
S214082CB098470028B8BF4FF0FF36A3891B061CD4D8
S214082CC0216B41B104F14003994202D02846FFF730
S214082CD01BFB00232363616C21B12846FFF714FB16
S214082CE000236364FFF7A2FA0023A381FFF7A0FA84
S214082CF0304670BDFFF794FACBE721692846FFF700
S214082D0003FBDDE770B50D460023074C0646114663
S214082D1028462360FEF789FF431C00D070BD236851
S214082D20002BFBD0336070BDC44F0720F8B50E46A5
S214082D300025084C114607461A4630462560FEF719
S214082D4079FF431C00D0F8BD2368002BFBD03B60FE
S214082D50F8BD00BFC44F0720F8B50E460025084C3E
S214082D60114607461A4630462560FDF76DFD431C9A
S214082D7000D0F8BD2368002BFBD03B60F8BD00BF31
S214082D80C44F072000000000963007772C610EEE2F
S214082D90BA51099919C46D078FF46A7035A563E9A5
S214082DA0A395649E3288DB0EA4B8DC791EE9D5E0CC
S214082DB088D9D2972B4CB609BD7CB17E072DB8E7CB
S214082DC0911DBF906410B71DF220B06A4871B9F320
S214082DD0DE41BE847DD4DA1AEBE4DD6D51B5D4F459
S214082DE0C785D38356986C13C0A86B647AF962FDBE
S214082DF0ECC9658A4F5C0114D96C0663633D0FFA0B
S214082E00F50D088DC8206E3B5E10694CE44160D510
S214082E10727167A2D1E4033C47D4044BFD850DD2FA
S214082E206BB50AA5FAA8B5356C98B242D6C9BBDB0D
S214082E3040F9BCACE36CD832755CDF45CF0DD6DC08
S214082E40593DD1ABAC30D9263A00DE518051D7C8AF
S214082E501661D0BFB5F4B42123C4B3569995BACF3A
S214082E600FA5BDB89EB802280888055FB2D90CC65B
S214082E7024E90BB1877C6F2F114C6858AB1D61C1D4
S214082E803D2D66B69041DC760671DB01BC20D298F3
S214082E902A10D5EF8985B1711FB5B606A5E4BF9F80
S214082EA033D4B8E8A2C9077834F9000F8EA8099673
S214082EB018980EE1BB0D6A7F2D3D6D08976C6491DE
S214082EC0015C63E6F4516B6B62616C1CD8306585F7
S214082ED04E0062F2ED95066C7BA5011BC1F40882D4
S214082EE057C40FF5C6D9B06550E9B712EAB8BE8B15
S214082EF07C88B9FCDF1DDD62492DDA15F37CD38C9E
S214082F00654CD4FB5861B24DCE51B53A7400BCA39B
S214082F10E230BBD441A5DF4AD795D83D6DC4D1A4CD
S214082F20FBF4D6D36AE96943FCD96E34468867ADA4
S214082F30D0B860DA732D0444E51D03335F4C0AAA43
S214082F40C97C0DDD3C710550AA41022710100BBE46
S214082F5086200CC925B56857B3856F2009D466B98D
S214082F609FE461CE0EF9DE5E98C9D9292298D0B0C2
S214082F70B4A8D7C7173DB359810DB42E3B5CBDB76F
S214082F80AD6CBAC02083B8EDB6B3BF9A0CE2B603F0
S214082F909AD2B1743947D5EAAF77D29D1526DB04A5
S214082FA08316DC73120B63E3843B64943E6A6D0DF0
S214082FB0A85A6A7A0BCF0EE49DFF099327AE000A3B
S214082FC0B19E077D44930FF0D2A3088768F2011ECE
S214082FD0FEC206695D5762F7CB67658071366C1965
S214082FE0E7066B6E761BD4FEE02BD3895A7ADA1086
S214082FF0CC4ADD676FDFB9F9F9EFBE8E43BEB71767
S214083000D58EB060E8A3D6D67E93D1A1C4C2D838F0
S21408301052F2DF4FF167BBD16757BCA6DD06B53F56
S2140830204B36B248DA2B0DD84C1B0AAFF64A033695
S214083030607A0441C3EF60DF55DF67A8EF8E6E3114
S21408304079BE69468CB361CB1A8366BCA0D26F255D
S21408305036E2685295770CCC03470BBBB9160222AA
S2140830602F260555BE3BBAC5280BBDB2925AB42BBF
S214083070046AB35CA7FFD7C231CFD0B58B9ED92CD4
S2140830801DAEDE5BB0C2649B26F263EC9CA36A7539
S2140830900A936D02A906099C3F360EEB85670772F0
S2140830A013570005824ABF95147AB8E2AE2BB17B57
S2140830B0381BB60C9B8ED2920DBED5E5B7EFDC7CDE
S2140830C021DFDB0BD4D2D38642E2D4F1F8B3DD6835
S2140830D06E83DA1FCD16BE815B26B9F6E177B06F30
S2140830E07747B718E65A0888706A0FFFCA3B06661D
S2140830F05C0B0111FF9E658F69AE62F8D3FF6B61AA
S21408310045CF6C1678E20AA0EED20DD75483044E4B
S214083110C2B30339612667A7F71660D04D476949D9
S214083120DB776E3E4A6AD1AEDC5AD6D9660BDF40EC
S214083130F03BD83753AEBCA9C59EBBDE7FCFB2479F
S214083140E9FFB5301CF2BDBD8AC2BACA3093B35384
S214083150A6A3B4240536D0BA9306D7CD2957DE548D
S214083160BF67D9232E7A66B3B84A61C4021B685D66
S214083170942B6F2A37BE0BB4A18E0CC31BDF055ADF
S2140831808DEF022D5545E892D6B16259FC8AC8F2F1
S214083190D6E14A3548220720F8B500BFF8BC08BC77
S2140831A09E467047A11F080019010800F8B500BF21
S2140831B0F8BC08BC9E4670475FF800F095000720EC
S2140831C05FF800F0790007205FF800F07500072028
S2100831D05FF800F045010720F500080035
S2140831DC70B483B0069D1A4CA04212D04FF4402609
S2140831EC5BB3046844F480340460C9B241F0B4415B
S2140831FC416081680191019911F0010FF9D1002104
S21408320C07E04FF40026EBE756F8214043F8214038
S21408321C0131A942F8D3D2B242F0B4424260836874
S21408322C0193019B13F0010FF9D0036823F4803344
S21408323C0360002003B070BC70470220FAE700BF9A
S21408324C000A0E400160704782B0416083680193A3
S21408325C019B13F0010FF9D0019800F0060002B09C
S21408326C704700BFBFF35F8F0138FBD17047000073
S21408327C4FF48063204A136002F5007213601F4BEC
S21408328C1B6A13F0807F07D11D4A1C4B1A621B4B16
S21408329C9B6E13F0010FFAD01A4A184B1A62174B8A
S2140832AC9B6E13F4803FFAD0144A136B23F0030377
S2140832BC43F001031363114B9B6E13F0080FFAD0FF
S2140832CC114A0E4B9A620D4B9B6E13F0020FFAD0F6
S2140832DC11220A4B1A63094B9B6E13F0080FFAD08F
S2140832EC1222064B1A63054B9B6E13F0080FFAD086
S2140832FC064A074B1A607047000A0E4000060E4036
S21408330C0908370009083701013F0D2000BD0105E3
S21408331C3C2207201E4B984213D91E4B984217D9AD
S21408332C1D4B98421CD91D4B984221D91C4B9842D0
S21408333C26D94FF4A0631B4A136002F5007213607B
S21408334C70470023174A136002F500721360704723
S21408335C4FF48073134A136002F5007213607047BB
S21408336C4FF400730F4A136002F50072136070472F
S21408337C4FF440730B4A136002F5007213607047E3
S21408338C4FF48063074A136002F5007213607047A7
S21408339CBFEA21017FF0FA02FF8FD003FFB3C40403
S2140833AC7F4A5D05000A0E40100A00000000000067
S2140833BC00000000000000000000000000000000F4
S2140833CC00000000000000000000000000000000E4
S2140833DC00000000000000000000000000000000D4
S2140833EC00000000000000000000000000000000C4
S2140853DC291308000D110800B11208001D12080048
S2140853EC911108007510080031100800FD0F080010
S2140853FCB90F0800790F0800350F08001D0E0800B5
S21408540CED0E0800A90D08000100000000093D007B
S21408541C4822072000000000000000003425072062
S21408542C9C2507200426072000000000000000002A
S21408543C0000000000000000000000000000000053
S21408544C0000000000000000000000000000000043
S21408545C0000000000000000000000000000000033
S21408546C0000000000000000000000000000000023
S21408547C0000000000000000000000000000000013
S21408548C0000000000000000000000000000000003
S21408549C00000000000000000000000000000000F3
S2140854AC00000000000000000000000000000000E3
S2140854BC00000000000000000000000000000000D3
S2140854CC01000000000000000E33CDAB34126DE670
S2140854DCECDE05000B0000000000000000000000D9
S2140854EC00000000000000000000000000000000A3
S2140854FC0000000000000000000000000000000093
S21408550C0000000000000000000000000000000082
S21408551C0000000000000000000000000000000072
S21408584C00000000000000007026072070260720C5
S21408585C782607207826072080260720802607200B
S21408586C88260720882607209026072090260720BB
S21408587C9826072098260720A0260720A02607206B
S21408588CA8260720A8260720B0260720B02607201B
S21408589CB8260720B8260720C0260720C0260720CB
S2140858ACC8260720C8260720D0260720D02607207B
S2140858BCD8260720D8260720E0260720E02607202B
S2140858CCE8260720E8260720F0260720F0260720DB
S2140858DCF8260720F8260720002707200027072089
S2140858EC0827072008270720102707201027072037
S2140858FC18270720182707202027072020270720E7
S21408590C2827072028270720302707203027072096
S21408591C3827072038270720402707204027072046
S21408592C48270720482707205027072050270720F6
S21408593C58270720582707206027072060270720A6
S21408594C6827072068270720702707207027072056
S21408595C7827072078270720802707208027072006
S21408596C88270720882707209027072090270720B6
S21408597C9827072098270720A0270720A027072066
S21408598CA8270720A8270720B0270720B027072016
S21408599CB8270720B8270720C0270720C0270720C6
S2140859ACC8270720C8270720D0270720D027072076
S2140859BCD8270720D8270720E0270720E027072026
S2140859CCE8270720E8270720F0270720F0270720D6
S2140859DCF8270720F8270720002807200028072084
S2140859EC0828072008280720102807201028072032
S2140859FC18280720182807202028072020280720E2
S214085A0C2828072028280720302807203028072091
S214085A1C3828072038280720402807204028072041
S214085A2C48280720482807205028072050280720F1
S214085A3C58280720582807206028072060280720A1
S214085A4C6828072068280720702807207028072051
S214085A5C7828072078280720802807208028072001
S214085A6C88280720882807209028072090280720B1
S214085A7C9828072098280720A0280720A028072061
S214085A8CA8280720A8280720B0280720B028072011
S214085A9CB8280720B8280720C0280720C0280720C1
S214085AACC8280720C8280720D0280720D028072071
S214085ABCD8280720D8280720E0280720E028072021
S214085ACCE8280720E8280720F0280720F0280720D1
S214085ADCF8280720F828072000290720002907207F
S214085AEC082907200829072010290720102907202D
S214085AFC18290720182907202029072020290720DD
S214085B0C282907202829072030290720302907208C
S214085B1C382907203829072040290720402907203C
S214085B2C48290720482907205029072050290720EC
S214085B3C582907205829072060290720602907209C
S214085B4C682907206829072070290720702907204C
S214085B5C78290720782907208029072080290720FC
S214085B6C88290720882907209029072090290720AC
S214085B7C9829072098290720A0290720A02907205C
S214085B8CA8290720A8290720B0290720B02907200C
S214085B9CB8290720B8290720C0290720C0290720BC
S214085BACC8290720C8290720D0290720D02907206C
S214085BBCD8290720D8290720E0290720E02907201C
S214085BCCE8290720E8290720F0290720F0290720CC
S214085BDCF8290720F8290720002A0720002A07207A
S214085BEC082A0720082A0720102A0720102A072028
S214085BFC182A0720182A0720202A0720202A0720D8
S214085C0C282A0720282A0720302A0720302A072087
S214085C1C382A0720382A0720402A0720402A072037
S214085C2C482A0720482A0720502A0720502A0720E7
S214085C3C582A0720582A0720602A0720602A072097
S214085C4C682A0720682A0720FFFFFFFF00000200CB
S804081A5D7C
